{
  "contractName": "Batch",
  "abi": [
    {
      "inputs": [
        {
          "name": "_addressCourse",
          "type": "address"
        },
        {
          "name": "_batchIdentifier",
          "type": "bytes32"
        }
      ],
      "payable": false,
      "stateMutability": "nonpayable",
      "type": "constructor"
    },
    {
      "anonymous": false,
      "inputs": [
        {
          "indexed": false,
          "name": "flag",
          "type": "bool"
        }
      ],
      "name": "StudentAdded",
      "type": "event"
    },
    {
      "constant": true,
      "inputs": [],
      "name": "getBatchIdentifier",
      "outputs": [
        {
          "name": "",
          "type": "bytes32"
        }
      ],
      "payable": false,
      "stateMutability": "view",
      "type": "function"
    },
    {
      "constant": true,
      "inputs": [],
      "name": "getCourseAddress",
      "outputs": [
        {
          "name": "",
          "type": "address"
        }
      ],
      "payable": false,
      "stateMutability": "view",
      "type": "function"
    },
    {
      "constant": true,
      "inputs": [
        {
          "name": "studAddress",
          "type": "address"
        }
      ],
      "name": "isStudentExist",
      "outputs": [
        {
          "name": "",
          "type": "bool"
        }
      ],
      "payable": false,
      "stateMutability": "view",
      "type": "function"
    },
    {
      "constant": false,
      "inputs": [
        {
          "name": "studAddress",
          "type": "address"
        }
      ],
      "name": "addStudent",
      "outputs": [
        {
          "name": "",
          "type": "uint256"
        }
      ],
      "payable": false,
      "stateMutability": "nonpayable",
      "type": "function"
    },
    {
      "constant": true,
      "inputs": [],
      "name": "getNoOfStudents",
      "outputs": [
        {
          "name": "",
          "type": "uint256"
        }
      ],
      "payable": false,
      "stateMutability": "view",
      "type": "function"
    },
    {
      "constant": true,
      "inputs": [
        {
          "name": "index",
          "type": "uint256"
        }
      ],
      "name": "getStudentAt",
      "outputs": [
        {
          "name": "",
          "type": "address"
        }
      ],
      "payable": false,
      "stateMutability": "view",
      "type": "function"
    },
    {
      "constant": true,
      "inputs": [],
      "name": "getAllStudents",
      "outputs": [
        {
          "name": "",
          "type": "address[20]"
        }
      ],
      "payable": false,
      "stateMutability": "view",
      "type": "function"
    },
    {
      "constant": true,
      "inputs": [],
      "name": "getMerkelRoot",
      "outputs": [
        {
          "name": "",
          "type": "bytes32"
        }
      ],
      "payable": false,
      "stateMutability": "view",
      "type": "function"
    },
    {
      "constant": false,
      "inputs": [
        {
          "name": "_merkelRootHash",
          "type": "bytes32"
        }
      ],
      "name": "setMerkelRoot",
      "outputs": [
        {
          "name": "",
          "type": "bool"
        }
      ],
      "payable": false,
      "stateMutability": "nonpayable",
      "type": "function"
    }
  ],
  "bytecode": "0x608060405234801561001057600080fd5b50604051604080610aa78339810180604052604081101561003057600080fd5b810190808051906020019092919080519060200190929190505050336000806101000a81548173ffffffffffffffffffffffffffffffffffffffff021916908373ffffffffffffffffffffffffffffffffffffffff16021790555033600160006101000a81548173ffffffffffffffffffffffffffffffffffffffff021916908373ffffffffffffffffffffffffffffffffffffffff16021790555081600260006101000a81548173ffffffffffffffffffffffffffffffffffffffff021916908373ffffffffffffffffffffffffffffffffffffffff160217905550806003819055505050610982806101256000396000f3fe608060405260043610610099576000357c0100000000000000000000000000000000000000000000000000000000900463ffffffff16806326a1c6851461009e57806351d4cebf146100f55780638921013014610120578063b5e115f51461019b578063bd06ea19146101ee578063de697d7f14610253578063e9e309271461027e578063f6c510a8146102d1578063f6ca58ca1461033a575b600080fd5b3480156100aa57600080fd5b506100b3610365565b604051808273ffffffffffffffffffffffffffffffffffffffff1673ffffffffffffffffffffffffffffffffffffffff16815260200191505060405180910390f35b34801561010157600080fd5b5061010a61038f565b6040518082815260200191505060405180910390f35b34801561012c57600080fd5b506101596004803603602081101561014357600080fd5b810190808035906020019092919050505061039c565b604051808273ffffffffffffffffffffffffffffffffffffffff1673ffffffffffffffffffffffffffffffffffffffff16815260200191505060405180910390f35b3480156101a757600080fd5b506101d4600480360360208110156101be57600080fd5b81019080803590602001909291905050506103f6565b604051808215151515815260200191505060405180910390f35b3480156101fa57600080fd5b5061023d6004803603602081101561021157600080fd5b81019080803573ffffffffffffffffffffffffffffffffffffffff169060200190929190505050610408565b6040518082815260200191505060405180910390f35b34801561025f57600080fd5b50610268610654565b6040518082815260200191505060405180910390f35b34801561028a57600080fd5b5061029361065e565b6040518082601460200280838360005b838110156102be5780820151818401526020810190506102a3565b5050505090500191505060405180910390f35b3480156102dd57600080fd5b50610320600480360360208110156102f457600080fd5b81019080803573ffffffffffffffffffffffffffffffffffffffff169060200190929190505050610806565b604051808215151515815260200191505060405180910390f35b34801561034657600080fd5b5061034f610928565b6040518082815260200191505060405180910390f35b6000600260009054906101000a900473ffffffffffffffffffffffffffffffffffffffff16905090565b6000600680549050905090565b60006006805490508210156103ec576006828154811015156103ba57fe5b9060005260206000200160009054906101000a900473ffffffffffffffffffffffffffffffffffffffff1690506103f1565b600090505b919050565b60008160048190555060019050919050565b60008060009054906101000a900473ffffffffffffffffffffffffffffffffffffffff1673ffffffffffffffffffffffffffffffffffffffff163373ffffffffffffffffffffffffffffffffffffffff1614151561046557600080fd5b61046e82610806565b1561047d5761270f905061064f565b81600560008473ffffffffffffffffffffffffffffffffffffffff1673ffffffffffffffffffffffffffffffffffffffff16815260200190815260200160002060000160006101000a81548173ffffffffffffffffffffffffffffffffffffffff021916908373ffffffffffffffffffffffffffffffffffffffff1602179055506001600560008473ffffffffffffffffffffffffffffffffffffffff1673ffffffffffffffffffffffffffffffffffffffff16815260200190815260200160002060000160146101000a81548160ff021916908315150217905550600160068390806001815401808255809150509060018203906000526020600020016000909192909190916101000a81548173ffffffffffffffffffffffffffffffffffffffff021916908373ffffffffffffffffffffffffffffffffffffffff16021790555003600560008473ffffffffffffffffffffffffffffffffffffffff1673ffffffffffffffffffffffffffffffffffffffff168152602001908152602001600020600101819055507fd2b9d64e3d3d48c3264375e25c3d91ab965c536015fcd385d9e87fcff5c6e26d6001604051808215151515815260200191505060405180910390a160016006805490500390505b919050565b6000600454905090565b610666610932565b61066e610932565b60008090505b6006805490508110156107fe576005600060068381548110151561069457fe5b9060005260206000200160009054906101000a900473ffffffffffffffffffffffffffffffffffffffff1673ffffffffffffffffffffffffffffffffffffffff1673ffffffffffffffffffffffffffffffffffffffff16815260200190815260200160002060000160149054906101000a900460ff16156107f1576005600060068381548110151561072257fe5b9060005260206000200160009054906101000a900473ffffffffffffffffffffffffffffffffffffffff1673ffffffffffffffffffffffffffffffffffffffff1673ffffffffffffffffffffffffffffffffffffffff16815260200190815260200160002060000160009054906101000a900473ffffffffffffffffffffffffffffffffffffffff1682826014811015156107b957fe5b602002019073ffffffffffffffffffffffffffffffffffffffff16908173ffffffffffffffffffffffffffffffffffffffff16815250505b8080600101915050610674565b508091505090565b600080600680549050141561081e5760009050610923565b8173ffffffffffffffffffffffffffffffffffffffff166006600560008573ffffffffffffffffffffffffffffffffffffffff1673ffffffffffffffffffffffffffffffffffffffff1681526020019081526020016000206001015481548110151561088657fe5b9060005260206000200160009054906101000a900473ffffffffffffffffffffffffffffffffffffffff1673ffffffffffffffffffffffffffffffffffffffff161480156109205750600560008373ffffffffffffffffffffffffffffffffffffffff1673ffffffffffffffffffffffffffffffffffffffff16815260200190815260200160002060000160149054906101000a900460ff165b90505b919050565b6000600354905090565b6102806040519081016040528060149060208202803883398082019150509050509056fea165627a7a72305820dd3420d6fdf8c46f31d1d4ead4362590cfa132d0d3d30d483bf278b604cdf8fe0029",
  "source": "//pragma solidity 0.5.23;\r\npragma solidity >=0.5.0 <0.7.0;\r\n\r\nimport \"./Student.sol\";\r\nimport \"./Owned.sol\";\r\n\r\n//Batch domain object, related to a course which is to depict a batch object in Blockchain\r\ncontract Batch is Owned{\r\n  address private owner;      \t\t  //Address of ControllerContract\r\n  address private addressCourse;    //Address of parent Course\r\n  bytes32 private batchIdentifier;  //Unique indetifier of Batch, set from the DApp\r\n  bytes32 private merkelRootHash;   //This is merkel root of all the certs issued, by SHA256notaryHash\r\n\r\n  //event sent when new student is added\r\n  event StudentAdded(bool flag);\r\n\r\n  //Data Structure maintained for Students\r\n  struct StudentStruct {\r\n    address studentData;\r\n    bool isStudent;\r\n\t  uint index;\r\n  }\r\n  mapping (address => StudentStruct) private studentStructs;\r\n  address[] private studentIndex;\r\n\r\n  //Constructor of the batch object, address of parent Course and batch identifier is sent\r\n  constructor(address _addressCourse, bytes32 _batchIdentifier) public {\r\n    owner = msg.sender;  // just set the ControllerContract\r\n    addressCourse = _addressCourse;\r\n    batchIdentifier = _batchIdentifier;\r\n  }\r\n\r\n  //For batchIdentifier\r\n  function getBatchIdentifier() public view returns(bytes32) {\r\n      return batchIdentifier;\r\n  }\r\n\r\n  //For CourseAddress\r\n  function getCourseAddress() public view returns(address) {\r\n      return addressCourse;\r\n  }\r\n\r\n  //Check whether Student already exists\r\n  function isStudentExist(address studAddress) public view returns(bool) {\r\n    if(studentIndex.length == 0) return false;\r\n\t    return ((studentIndex[studentStructs[studAddress].index] == studAddress) && (studentStructs[studAddress].isStudent));\r\n  }\r\n\r\n  //add the new student to the list, if it does not exists already\r\n  function addStudent(address studAddress) public onlyOwner returns(uint) {\r\n    if(isStudentExist(studAddress)) return uint(9999); //9999 is merely a number sent to the callee, signifying the given student already part of the batch\r\n    studentStructs[studAddress].studentData = studAddress;\r\n\t  studentStructs[studAddress].isStudent = true;\r\n    studentStructs[studAddress].index = studentIndex.push(studAddress)-1;\r\n    emit StudentAdded(true);\r\n    return studentIndex.length-1;\r\n  }\r\n\r\n  //get the total no of students of the batch\r\n  function getNoOfStudents() public view returns (uint) {\r\n    return studentIndex.length;\r\n  }\r\n\r\n  function getStudentAt(uint index) public view returns (address) {\r\n  \tif(index < studentIndex.length)\r\n  \t\treturn studentIndex[index];\r\n  \telse\r\n  \t\treturn address(0x00);\r\n  }\r\n\r\n  //Currently, there is no standard support from solidity to pass dynamic aray as input parameter! Assuming that no of students will not be more than 20\r\n  function getAllStudents() public view returns(address[20] memory) {\r\n    address[20] memory studentsArray;\r\n    for (uint index = 0; index < studentIndex.length; index++) {\r\n  \tif(studentStructs[studentIndex[index]].isStudent) //If flag is true\r\n      studentsArray[index] = studentStructs[studentIndex[index]].studentData;\r\n    }\r\n    return studentsArray;\r\n  }\r\n\r\n  //Get Merkel root of the batch associated with all the certificates assigned for all successful student under the batch\r\n  function getMerkelRoot() public view returns(bytes32) {\r\n    return merkelRootHash;\r\n  }\r\n\r\n  //Set Merkel root of all the certificates assigned for all successful student under the batch\r\n  function setMerkelRoot(bytes32 _merkelRootHash) public returns(bool) {\r\n    merkelRootHash = _merkelRootHash;\r\n    return true;\r\n  }\r\n}\r\n",
  "sourcePath": "/Users/rahulgolash/Rahul/Professional/SmartUniversity/smartuniversity/contracts/Batch.sol",
  "compiler": {
    "name": "solc",
    "version": "0.5.0+commit.1d4f565a.Emscripten.clang"
  },
  "schemaVersion": "3.0.1",
  "updatedAt": "2020-02-21T12:15:02.951Z",
  "devdoc": {
    "methods": {}
  },
  "userdoc": {
    "methods": {}
  }
}