{
  "contractName": "CertController",
  "abi": [
    {
      "inputs": [],
      "payable": false,
      "stateMutability": "nonpayable",
      "type": "constructor"
    },
    {
      "anonymous": false,
      "inputs": [
        {
          "indexed": false,
          "name": "student",
          "type": "address"
        }
      ],
      "name": "StudentAddress",
      "type": "event"
    },
    {
      "anonymous": false,
      "inputs": [
        {
          "indexed": false,
          "name": "certificate",
          "type": "address"
        },
        {
          "indexed": false,
          "name": "batchAddr",
          "type": "address"
        }
      ],
      "name": "CertificateAddress",
      "type": "event"
    },
    {
      "anonymous": false,
      "inputs": [
        {
          "indexed": false,
          "name": "stuAddress",
          "type": "address"
        },
        {
          "indexed": false,
          "name": "message",
          "type": "string"
        },
        {
          "indexed": false,
          "name": "batchAddress",
          "type": "address"
        }
      ],
      "name": "VerifyCertificate",
      "type": "event"
    },
    {
      "anonymous": false,
      "inputs": [
        {
          "indexed": false,
          "name": "flag",
          "type": "bool"
        }
      ],
      "name": "StudentAdded",
      "type": "event"
    },
    {
      "anonymous": false,
      "inputs": [
        {
          "indexed": false,
          "name": "flag",
          "type": "bool"
        }
      ],
      "name": "CertificateAdded",
      "type": "event"
    },
    {
      "anonymous": false,
      "inputs": [
        {
          "indexed": false,
          "name": "batchAddress",
          "type": "address"
        },
        {
          "indexed": false,
          "name": "stuAddress",
          "type": "address"
        },
        {
          "indexed": false,
          "name": "certAddress",
          "type": "address"
        },
        {
          "indexed": false,
          "name": "flag",
          "type": "bool"
        }
      ],
      "name": "CertificateGranted",
      "type": "event"
    },
    {
      "constant": false,
      "inputs": [
        {
          "name": "batchAddr",
          "type": "address"
        },
        {
          "name": "_certIdentifier",
          "type": "bytes32"
        },
        {
          "name": "_revoke",
          "type": "bool"
        },
        {
          "name": "_expired",
          "type": "bool"
        }
      ],
      "name": "createCertificate",
      "outputs": [
        {
          "name": "",
          "type": "address"
        }
      ],
      "payable": false,
      "stateMutability": "nonpayable",
      "type": "function"
    },
    {
      "constant": true,
      "inputs": [
        {
          "name": "certAddress",
          "type": "address"
        }
      ],
      "name": "isCertificateExist",
      "outputs": [
        {
          "name": "",
          "type": "bool"
        }
      ],
      "payable": false,
      "stateMutability": "view",
      "type": "function"
    },
    {
      "constant": true,
      "inputs": [],
      "name": "getNoOfCertificates",
      "outputs": [
        {
          "name": "",
          "type": "uint256"
        }
      ],
      "payable": false,
      "stateMutability": "view",
      "type": "function"
    },
    {
      "constant": true,
      "inputs": [
        {
          "name": "index",
          "type": "uint256"
        }
      ],
      "name": "getCertificateAt",
      "outputs": [
        {
          "name": "",
          "type": "address"
        }
      ],
      "payable": false,
      "stateMutability": "view",
      "type": "function"
    },
    {
      "constant": false,
      "inputs": [
        {
          "name": "batchAddress",
          "type": "address"
        },
        {
          "name": "_studentIdentifier",
          "type": "bytes32"
        }
      ],
      "name": "addNewStudent",
      "outputs": [
        {
          "name": "",
          "type": "address"
        }
      ],
      "payable": false,
      "stateMutability": "nonpayable",
      "type": "function"
    },
    {
      "constant": true,
      "inputs": [
        {
          "name": "studAddress",
          "type": "address"
        }
      ],
      "name": "isStudentExist",
      "outputs": [
        {
          "name": "",
          "type": "bool"
        }
      ],
      "payable": false,
      "stateMutability": "view",
      "type": "function"
    },
    {
      "constant": true,
      "inputs": [],
      "name": "getNoOfStudents",
      "outputs": [
        {
          "name": "",
          "type": "uint256"
        }
      ],
      "payable": false,
      "stateMutability": "view",
      "type": "function"
    },
    {
      "constant": true,
      "inputs": [
        {
          "name": "index",
          "type": "uint256"
        }
      ],
      "name": "getStudentAt",
      "outputs": [
        {
          "name": "",
          "type": "address"
        }
      ],
      "payable": false,
      "stateMutability": "view",
      "type": "function"
    },
    {
      "constant": false,
      "inputs": [
        {
          "name": "batchAddress",
          "type": "address"
        },
        {
          "name": "studAddress",
          "type": "address"
        },
        {
          "name": "certAddress",
          "type": "address"
        },
        {
          "name": "timestamp",
          "type": "bytes32"
        }
      ],
      "name": "issueCertificate",
      "outputs": [
        {
          "name": "",
          "type": "bool"
        }
      ],
      "payable": false,
      "stateMutability": "nonpayable",
      "type": "function"
    },
    {
      "constant": false,
      "inputs": [
        {
          "name": "certAddress",
          "type": "address"
        },
        {
          "name": "certHash",
          "type": "bytes32"
        }
      ],
      "name": "setCertHash",
      "outputs": [
        {
          "name": "",
          "type": "bool"
        }
      ],
      "payable": false,
      "stateMutability": "nonpayable",
      "type": "function"
    },
    {
      "constant": false,
      "inputs": [
        {
          "name": "studAddress",
          "type": "address"
        },
        {
          "name": "certAddress",
          "type": "address"
        }
      ],
      "name": "verifyCertificate",
      "outputs": [
        {
          "name": "",
          "type": "bool"
        }
      ],
      "payable": false,
      "stateMutability": "nonpayable",
      "type": "function"
    },
    {
      "constant": true,
      "inputs": [
        {
          "name": "certAddress",
          "type": "address"
        },
        {
          "name": "certHash",
          "type": "bytes32"
        }
      ],
      "name": "verifyCertHash",
      "outputs": [
        {
          "name": "",
          "type": "bool"
        }
      ],
      "payable": false,
      "stateMutability": "view",
      "type": "function"
    }
  ],
  "bytecode": "0x608060405234801561001057600080fd5b50336000806101000a81548173ffffffffffffffffffffffffffffffffffffffff021916908373ffffffffffffffffffffffffffffffffffffffff16021790555033600160006101000a81548173ffffffffffffffffffffffffffffffffffffffff021916908373ffffffffffffffffffffffffffffffffffffffff160217905550612a02806100a16000396000f3fe6080604052600436106100ba576000357c0100000000000000000000000000000000000000000000000000000000900463ffffffff16806320487bf1146100bf5780633312b43b1461014857806333ce361e146101bb57806351d4cebf146102365780635e898f0d1461026157806363e1cb12146102d4578063892101301461038757806389f1f6a814610402578063bd69b3811461046b578063d67692a714610496578063e79a9ad014610549578063f6c510a8146105e4575b600080fd5b3480156100cb57600080fd5b5061012e600480360360408110156100e257600080fd5b81019080803573ffffffffffffffffffffffffffffffffffffffff169060200190929190803573ffffffffffffffffffffffffffffffffffffffff16906020019092919050505061064d565b604051808215151515815260200191505060405180910390f35b34801561015457600080fd5b506101a16004803603604081101561016b57600080fd5b81019080803573ffffffffffffffffffffffffffffffffffffffff169060200190929190803590602001909291905050506109d0565b604051808215151515815260200191505060405180910390f35b3480156101c757600080fd5b506101f4600480360360208110156101de57600080fd5b8101908080359060200190929190505050610a89565b604051808273ffffffffffffffffffffffffffffffffffffffff1673ffffffffffffffffffffffffffffffffffffffff16815260200191505060405180910390f35b34801561024257600080fd5b5061024b610ae4565b6040518082815260200191505060405180910390f35b34801561026d57600080fd5b506102ba6004803603604081101561028457600080fd5b81019080803573ffffffffffffffffffffffffffffffffffffffff16906020019092919080359060200190929190505050610af1565b604051808215151515815260200191505060405180910390f35b3480156102e057600080fd5b50610345600480360360808110156102f757600080fd5b81019080803573ffffffffffffffffffffffffffffffffffffffff16906020019092919080359060200190929190803515159060200190929190803515159060200190929190505050610b9f565b604051808273ffffffffffffffffffffffffffffffffffffffff1673ffffffffffffffffffffffffffffffffffffffff16815260200191505060405180910390f35b34801561039357600080fd5b506103c0600480360360208110156103aa57600080fd5b8101908080359060200190929190505050610ccd565b604051808273ffffffffffffffffffffffffffffffffffffffff1673ffffffffffffffffffffffffffffffffffffffff16815260200191505060405180910390f35b34801561040e57600080fd5b506104516004803603602081101561042557600080fd5b81019080803573ffffffffffffffffffffffffffffffffffffffff169060200190929190505050610d28565b604051808215151515815260200191505060405180910390f35b34801561047757600080fd5b50610480610e4a565b6040518082815260200191505060405180910390f35b3480156104a257600080fd5b5061052f600480360360808110156104b957600080fd5b81019080803573ffffffffffffffffffffffffffffffffffffffff169060200190929190803573ffffffffffffffffffffffffffffffffffffffff169060200190929190803573ffffffffffffffffffffffffffffffffffffffff16906020019092919080359060200190929190505050610e57565b604051808215151515815260200191505060405180910390f35b34801561055557600080fd5b506105a26004803603604081101561056c57600080fd5b81019080803573ffffffffffffffffffffffffffffffffffffffff16906020019092919080359060200190929190505050611057565b604051808273ffffffffffffffffffffffffffffffffffffffff1673ffffffffffffffffffffffffffffffffffffffff16815260200191505060405180910390f35b3480156105f057600080fd5b506106336004803603602081101561060757600080fd5b81019080803573ffffffffffffffffffffffffffffffffffffffff1690602001909291905050506111e6565b604051808215151515815260200191505060405180910390f35b60008082905060008173ffffffffffffffffffffffffffffffffffffffff1663054ca3f56040518163ffffffff167c010000000000000000000000000000000000000000000000000000000002815260040160206040518083038186803b1580156106b757600080fd5b505afa1580156106cb573d6000803e3d6000fd5b505050506040513d60208110156106e157600080fd5b810190808051906020019092919050505090507f2435cc96db13398f4dea8977731d25c36ab342fce3dd8192b957d55e6c24ef408582604051808373ffffffffffffffffffffffffffffffffffffffff1673ffffffffffffffffffffffffffffffffffffffff168152602001806020018373ffffffffffffffffffffffffffffffffffffffff1673ffffffffffffffffffffffffffffffffffffffff168152602001828103825260268152602001807f4365727469666963617465206973206173736f6369617465642077697468204281526020017f61746368203a0000000000000000000000000000000000000000000000000000815250604001935050505060405180910390a160008190508073ffffffffffffffffffffffffffffffffffffffff1663f6c510a8876040518263ffffffff167c0100000000000000000000000000000000000000000000000000000000028152600401808273ffffffffffffffffffffffffffffffffffffffff1673ffffffffffffffffffffffffffffffffffffffff16815260200191505060206040518083038186803b15801561088857600080fd5b505afa15801561089c573d6000803e3d6000fd5b505050506040513d60208110156108b257600080fd5b810190808051906020019092919050505015156108d557600093505050506109ca565b60008690508073ffffffffffffffffffffffffffffffffffffffff16631bb0a412876040518263ffffffff167c0100000000000000000000000000000000000000000000000000000000028152600401808273ffffffffffffffffffffffffffffffffffffffff1673ffffffffffffffffffffffffffffffffffffffff16815260200191505060206040518083038186803b15801561097357600080fd5b505afa158015610987573d6000803e3d6000fd5b505050506040513d602081101561099d57600080fd5b810190808051906020019092919050505015156109c15760009450505050506109ca565b60019450505050505b92915050565b6000808390508073ffffffffffffffffffffffffffffffffffffffff1663bf194486846040518263ffffffff167c010000000000000000000000000000000000000000000000000000000002815260040180828152602001915050602060405180830381600087803b158015610a4557600080fd5b505af1158015610a59573d6000803e3d6000fd5b505050506040513d6020811015610a6f57600080fd5b810190808051906020019092919050505091505092915050565b600060038054905082111515610ada57600382815481101515610aa857fe5b9060005260206000200160009054906101000a900473ffffffffffffffffffffffffffffffffffffffff169050610adf565b600090505b919050565b6000600580549050905090565b600080839050828173ffffffffffffffffffffffffffffffffffffffff1663d82d0cad6040518163ffffffff167c010000000000000000000000000000000000000000000000000000000002815260040160206040518083038186803b158015610b5a57600080fd5b505afa158015610b6e573d6000803e3d6000fd5b505050506040513d6020811015610b8457600080fd5b81019080805190602001909291905050501491505092915050565b60008085858585610bae6116ea565b808573ffffffffffffffffffffffffffffffffffffffff1673ffffffffffffffffffffffffffffffffffffffff1681526020018481526020018315151515815260200182151515158152602001945050505050604051809103906000f080158015610c1d573d6000803e3d6000fd5b509050610c2981611308565b507fad71e56992ae4d902ac58ac29051bb090bd29fc5f7ce747571e71716a5f3959e8187604051808373ffffffffffffffffffffffffffffffffffffffff1673ffffffffffffffffffffffffffffffffffffffff1681526020018273ffffffffffffffffffffffffffffffffffffffff1673ffffffffffffffffffffffffffffffffffffffff1681526020019250505060405180910390a180915050949350505050565b600060058054905082111515610d1e57600582815481101515610cec57fe5b9060005260206000200160009054906101000a900473ffffffffffffffffffffffffffffffffffffffff169050610d23565b600090505b919050565b6000806003805490501415610d405760009050610e45565b8173ffffffffffffffffffffffffffffffffffffffff166003600260008573ffffffffffffffffffffffffffffffffffffffff1673ffffffffffffffffffffffffffffffffffffffff16815260200190815260200160002060010154815481101515610da857fe5b9060005260206000200160009054906101000a900473ffffffffffffffffffffffffffffffffffffffff1673ffffffffffffffffffffffffffffffffffffffff16148015610e425750600260008373ffffffffffffffffffffffffffffffffffffffff1673ffffffffffffffffffffffffffffffffffffffff16815260200190815260200160002060000160149054906101000a900460ff165b90505b919050565b6000600380549050905090565b60008084905060008173ffffffffffffffffffffffffffffffffffffffff16631ada7c688887876040518463ffffffff167c0100000000000000000000000000000000000000000000000000000000028152600401808473ffffffffffffffffffffffffffffffffffffffff1673ffffffffffffffffffffffffffffffffffffffff1681526020018373ffffffffffffffffffffffffffffffffffffffff1673ffffffffffffffffffffffffffffffffffffffff1681526020018281526020019350505050602060405180830381600087803b158015610f3657600080fd5b505af1158015610f4a573d6000803e3d6000fd5b505050506040513d6020811015610f6057600080fd5b810190808051906020019092919050505090507fc452764fa24350b569c985c690d8ee6a2b9ccf2b43d3631c29aba43f8b161df287878784604051808573ffffffffffffffffffffffffffffffffffffffff1673ffffffffffffffffffffffffffffffffffffffff1681526020018473ffffffffffffffffffffffffffffffffffffffff1673ffffffffffffffffffffffffffffffffffffffff1681526020018373ffffffffffffffffffffffffffffffffffffffff1673ffffffffffffffffffffffffffffffffffffffff1681526020018215151515815260200194505050505060405180910390a18092505050949350505050565b600080826110636116fa565b80828152602001915050604051809103906000f080158015611089573d6000803e3d6000fd5b509050600081905061109a816114f9565b5060008590508073ffffffffffffffffffffffffffffffffffffffff1663bd06ea19836040518263ffffffff167c0100000000000000000000000000000000000000000000000000000000028152600401808273ffffffffffffffffffffffffffffffffffffffff1673ffffffffffffffffffffffffffffffffffffffff168152602001915050602060405180830381600087803b15801561113b57600080fd5b505af115801561114f573d6000803e3d6000fd5b505050506040513d602081101561116557600080fd5b8101908080519060200190929190505050507fdf013c83016211110af0672472e6562e4c006ecd97052b1d1b999ffcc1b88ce682604051808273ffffffffffffffffffffffffffffffffffffffff1673ffffffffffffffffffffffffffffffffffffffff16815260200191505060405180910390a181935050505092915050565b60008060058054905014156111fe5760009050611303565b8173ffffffffffffffffffffffffffffffffffffffff166005600460008573ffffffffffffffffffffffffffffffffffffffff1673ffffffffffffffffffffffffffffffffffffffff1681526020019081526020016000206001015481548110151561126657fe5b9060005260206000200160009054906101000a900473ffffffffffffffffffffffffffffffffffffffff1673ffffffffffffffffffffffffffffffffffffffff161480156113005750600460008373ffffffffffffffffffffffffffffffffffffffff1673ffffffffffffffffffffffffffffffffffffffff16815260200190815260200160002060000160149054906101000a900460ff165b90505b919050565b600061131382610d28565b156113225761270f90506114f4565b81600260008473ffffffffffffffffffffffffffffffffffffffff1673ffffffffffffffffffffffffffffffffffffffff16815260200190815260200160002060000160006101000a81548173ffffffffffffffffffffffffffffffffffffffff021916908373ffffffffffffffffffffffffffffffffffffffff1602179055506001600260008473ffffffffffffffffffffffffffffffffffffffff1673ffffffffffffffffffffffffffffffffffffffff16815260200190815260200160002060000160146101000a81548160ff021916908315150217905550600160038390806001815401808255809150509060018203906000526020600020016000909192909190916101000a81548173ffffffffffffffffffffffffffffffffffffffff021916908373ffffffffffffffffffffffffffffffffffffffff16021790555003600260008473ffffffffffffffffffffffffffffffffffffffff1673ffffffffffffffffffffffffffffffffffffffff168152602001908152602001600020600101819055507fd385ef968d1e286cb43d0a576e6ffef5ff245ff872ea73b47ff4958e3ce312826001604051808215151515815260200191505060405180910390a160016003805490500390505b919050565b6000611504826111e6565b156115135761270f90506116e5565b81600460008473ffffffffffffffffffffffffffffffffffffffff1673ffffffffffffffffffffffffffffffffffffffff16815260200190815260200160002060000160006101000a81548173ffffffffffffffffffffffffffffffffffffffff021916908373ffffffffffffffffffffffffffffffffffffffff1602179055506001600460008473ffffffffffffffffffffffffffffffffffffffff1673ffffffffffffffffffffffffffffffffffffffff16815260200190815260200160002060000160146101000a81548160ff021916908315150217905550600160058390806001815401808255809150509060018203906000526020600020016000909192909190916101000a81548173ffffffffffffffffffffffffffffffffffffffff021916908373ffffffffffffffffffffffffffffffffffffffff16021790555003600460008473ffffffffffffffffffffffffffffffffffffffff1673ffffffffffffffffffffffffffffffffffffffff168152602001908152602001600020600101819055507fd2b9d64e3d3d48c3264375e25c3d91ab965c536015fcd385d9e87fcff5c6e26d6001604051808215151515815260200191505060405180910390a160016005805490500390505b919050565b6040516108508061170b83390190565b604051610a7c80611f5b8339019056fe608060405234801561001057600080fd5b506040516080806108508339810180604052608081101561003057600080fd5b8101908080519060200190929190805190602001909291908051906020019092919080519060200190929190505050336000806101000a81548173ffffffffffffffffffffffffffffffffffffffff021916908373ffffffffffffffffffffffffffffffffffffffff160217905550336002806101000a81548173ffffffffffffffffffffffffffffffffffffffff021916908373ffffffffffffffffffffffffffffffffffffffff160217905550826001819055506000600360006101000a81548173ffffffffffffffffffffffffffffffffffffffff021916908373ffffffffffffffffffffffffffffffffffffffff16021790555083600460006101000a81548173ffffffffffffffffffffffffffffffffffffffff021916908373ffffffffffffffffffffffffffffffffffffffff16021790555081600260006101000a81548160ff02191690831515021790555080600260016101000a81548160ff021916908315150217905550505050506106a0806101b06000396000f3fe6080604052600436106100ae576000357c0100000000000000000000000000000000000000000000000000000000900463ffffffff16806266cef8146100b3578063054ca3f5146101265780632bc9ed021461017d5780632f13b60c146101ac57806335d38f09146101db578063a69912bd14610206578063b46df7aa14610235578063bf19448614610264578063bfc28f08146102b7578063d82d0cad1461030e578063eb21645814610339575b600080fd5b3480156100bf57600080fd5b5061010c600480360360408110156100d657600080fd5b81019080803573ffffffffffffffffffffffffffffffffffffffff16906020019092919080359060200190929190505050610368565b604051808215151515815260200191505060405180910390f35b34801561013257600080fd5b5061013b610453565b604051808273ffffffffffffffffffffffffffffffffffffffff1673ffffffffffffffffffffffffffffffffffffffff16815260200191505060405180910390f35b34801561018957600080fd5b5061019261047d565b604051808215151515815260200191505060405180910390f35b3480156101b857600080fd5b506101c1610494565b604051808215151515815260200191505060405180910390f35b3480156101e757600080fd5b506101f06104ab565b6040518082815260200191505060405180910390f35b34801561021257600080fd5b5061021b6104b5565b604051808215151515815260200191505060405180910390f35b34801561024157600080fd5b5061024a610534565b604051808215151515815260200191505060405180910390f35b34801561027057600080fd5b5061029d6004803603602081101561028757600080fd5b81019080803590602001909291905050506105b3565b604051808215151515815260200191505060405180910390f35b3480156102c357600080fd5b506102cc6105c1565b604051808273ffffffffffffffffffffffffffffffffffffffff1673ffffffffffffffffffffffffffffffffffffffff16815260200191505060405180910390f35b34801561031a57600080fd5b506103236105eb565b6040518082815260200191505060405180910390f35b34801561034557600080fd5b5061034e6105f5565b604051808215151515815260200191505060405180910390f35b60008060009054906101000a900473ffffffffffffffffffffffffffffffffffffffff1673ffffffffffffffffffffffffffffffffffffffff163373ffffffffffffffffffffffffffffffffffffffff161415156103c557600080fd5b82600360006101000a81548173ffffffffffffffffffffffffffffffffffffffff021916908373ffffffffffffffffffffffffffffffffffffffff160217905550816006819055507f946e6e18e3d30811b9e42d625a4a3ab67ab1bd284c12608a62c70a0bf4f3fd0e6001604051808215151515815260200191505060405180910390a16001905092915050565b6000600460009054906101000a900473ffffffffffffffffffffffffffffffffffffffff16905090565b6000600260009054906101000a900460ff16905090565b6000600260019054906101000a900460ff16905090565b6000600154905090565b60008060009054906101000a900473ffffffffffffffffffffffffffffffffffffffff1673ffffffffffffffffffffffffffffffffffffffff163373ffffffffffffffffffffffffffffffffffffffff1614151561051257600080fd5b6001600260016101000a81548160ff0219169083151502179055506001905090565b60008060009054906101000a900473ffffffffffffffffffffffffffffffffffffffff1673ffffffffffffffffffffffffffffffffffffffff163373ffffffffffffffffffffffffffffffffffffffff1614151561059157600080fd5b6000600260006101000a81548160ff0219169083151502179055506001905090565b600081600581905550919050565b6000600360009054906101000a900473ffffffffffffffffffffffffffffffffffffffff16905090565b6000600554905090565b60008060009054906101000a900473ffffffffffffffffffffffffffffffffffffffff1673ffffffffffffffffffffffffffffffffffffffff163373ffffffffffffffffffffffffffffffffffffffff1614151561065257600080fd5b6001600260006101000a81548160ff021916908315150217905550600190509056fea165627a7a7230582073261a1ccdf635f0ca44ad1296a09ef2717f430059bdd0a3615d2e26a9ce531e0029608060405234801561001057600080fd5b50604051602080610a7c8339810180604052602081101561003057600080fd5b8101908080519060200190929190505050336000806101000a81548173ffffffffffffffffffffffffffffffffffffffff021916908373ffffffffffffffffffffffffffffffffffffffff16021790555033600160006101000a81548173ffffffffffffffffffffffffffffffffffffffff021916908373ffffffffffffffffffffffffffffffffffffffff16021790555080600381905550506109a3806100d96000396000f3fe608060405260043610610078576000357c0100000000000000000000000000000000000000000000000000000000900463ffffffff168063054ca3f51461007d5780631ada7c68146100d45780631bb0a4121461016757806333ce361e146101d0578063bd69b3811461024b578063ecadd44314610276575b600080fd5b34801561008957600080fd5b506100926102c9565b604051808273ffffffffffffffffffffffffffffffffffffffff1673ffffffffffffffffffffffffffffffffffffffff16815260200191505060405180910390f35b3480156100e057600080fd5b5061014d600480360360608110156100f757600080fd5b81019080803573ffffffffffffffffffffffffffffffffffffffff169060200190929190803573ffffffffffffffffffffffffffffffffffffffff169060200190929190803590602001909291905050506102f3565b604051808215151515815260200191505060405180910390f35b34801561017357600080fd5b506101b66004803603602081101561018a57600080fd5b81019080803573ffffffffffffffffffffffffffffffffffffffff169060200190929190505050610622565b604051808215151515815260200191505060405180910390f35b3480156101dc57600080fd5b50610209600480360360208110156101f357600080fd5b8101908080359060200190929190505050610744565b604051808273ffffffffffffffffffffffffffffffffffffffff1673ffffffffffffffffffffffffffffffffffffffff16815260200191505060405180910390f35b34801561025757600080fd5b5061026061079e565b6040518082815260200191505060405180910390f35b34801561028257600080fd5b5061028b6107ab565b6040518082601460200280838360005b838110156102b657808201518184015260208101905061029b565b5050505090500191505060405180910390f35b6000600260009054906101000a900473ffffffffffffffffffffffffffffffffffffffff16905090565b60008060009054906101000a900473ffffffffffffffffffffffffffffffffffffffff1673ffffffffffffffffffffffffffffffffffffffff163373ffffffffffffffffffffffffffffffffffffffff1614151561035057600080fd5b61035983610622565b15610367576001905061061b565b60008390508073ffffffffffffffffffffffffffffffffffffffff166266cef830856040518363ffffffff167c0100000000000000000000000000000000000000000000000000000000028152600401808373ffffffffffffffffffffffffffffffffffffffff1673ffffffffffffffffffffffffffffffffffffffff16815260200182815260200192505050602060405180830381600087803b15801561040e57600080fd5b505af1158015610422573d6000803e3d6000fd5b505050506040513d602081101561043857600080fd5b81019080805190602001909291905050505083600460008673ffffffffffffffffffffffffffffffffffffffff1673ffffffffffffffffffffffffffffffffffffffff16815260200190815260200160002060000160006101000a81548173ffffffffffffffffffffffffffffffffffffffff021916908373ffffffffffffffffffffffffffffffffffffffff1602179055506001600460008673ffffffffffffffffffffffffffffffffffffffff1673ffffffffffffffffffffffffffffffffffffffff16815260200190815260200160002060000160146101000a81548160ff021916908315150217905550600160058590806001815401808255809150509060018203906000526020600020016000909192909190916101000a81548173ffffffffffffffffffffffffffffffffffffffff021916908373ffffffffffffffffffffffffffffffffffffffff16021790555003600460008673ffffffffffffffffffffffffffffffffffffffff1673ffffffffffffffffffffffffffffffffffffffff1681526020019081526020016000206001018190555084600260006101000a81548173ffffffffffffffffffffffffffffffffffffffff021916908373ffffffffffffffffffffffffffffffffffffffff16021790555060019150505b9392505050565b600080600580549050141561063a576000905061073f565b8173ffffffffffffffffffffffffffffffffffffffff166005600460008573ffffffffffffffffffffffffffffffffffffffff1673ffffffffffffffffffffffffffffffffffffffff168152602001908152602001600020600101548154811015156106a257fe5b9060005260206000200160009054906101000a900473ffffffffffffffffffffffffffffffffffffffff1673ffffffffffffffffffffffffffffffffffffffff1614801561073c5750600460008373ffffffffffffffffffffffffffffffffffffffff1673ffffffffffffffffffffffffffffffffffffffff16815260200190815260200160002060000160149054906101000a900460ff165b90505b919050565b60006005805490508210156107945760058281548110151561076257fe5b9060005260206000200160009054906101000a900473ffffffffffffffffffffffffffffffffffffffff169050610799565b600090505b919050565b6000600580549050905090565b6107b3610953565b6107bb610953565b60008090505b60058054905081101561094b57600460006005838154811015156107e157fe5b9060005260206000200160009054906101000a900473ffffffffffffffffffffffffffffffffffffffff1673ffffffffffffffffffffffffffffffffffffffff1673ffffffffffffffffffffffffffffffffffffffff16815260200190815260200160002060000160149054906101000a900460ff161561093e576004600060058381548110151561086f57fe5b9060005260206000200160009054906101000a900473ffffffffffffffffffffffffffffffffffffffff1673ffffffffffffffffffffffffffffffffffffffff1673ffffffffffffffffffffffffffffffffffffffff16815260200190815260200160002060000160009054906101000a900473ffffffffffffffffffffffffffffffffffffffff16828260148110151561090657fe5b602002019073ffffffffffffffffffffffffffffffffffffffff16908173ffffffffffffffffffffffffffffffffffffffff16815250505b80806001019150506107c1565b508091505090565b6102806040519081016040528060149060208202803883398082019150509050509056fea165627a7a723058208ff4c4c602b77ec232746b2331d805c48d6ce54dca7a93ec64cd482c39c2e95f0029a165627a7a72305820498351afebf81b1c4f918ad425fac202599546d64dac737cbd8065194d47b0ca0029",
  "source": "//pragma solidity 0.4.23;\r\npragma solidity >=0.5.0 <0.7.0;\r\n\r\nimport \"./Owned.sol\";\r\nimport \"./Student.sol\";\r\nimport \"./Certificate.sol\";\r\nimport \"./University.sol\";\r\nimport \"./Institute.sol\";\r\nimport \"./Course.sol\";\r\nimport \"./Batch.sol\";\r\nimport \"./ConvertLib.sol\";\r\n\r\n//Main controlling class, Facade pattern which controls the Create, Read and Update operations on Domain Objects e.g.\r\n//a. different universities;\r\n//b. different Institutes under the same University;\r\n//c. different courses provided by the given Institute,\r\n//d. different batches related to each course as per their duration and year;\r\n//e. list of Students studying a courses for a specific batch\r\n//f. Certificate which is created first and later granted to a student once course is successfully completed.\r\ncontract CertController is Owned {\r\n  address private owner; //DApp\r\n\r\n  //event sent to the DApp for new DOs e.g. University, Institute, Course, Batch, Student, Certificate are created\r\n  event StudentAddress(address student);\r\n  event CertificateAddress(address certificate, address batchAddr);\r\n  event VerifyCertificate(address stuAddress, string message, address batchAddress);\r\n\r\n  //event sent to the DApp whenever change in the internal structure e.g. Certificate added to list, Certificate granted to a student of a specific batch\r\n  event StudentAdded(bool flag);\r\n  event CertificateAdded(bool flag);\r\n  event CertificateGranted(address batchAddress, address stuAddress, address certAddress, bool flag);\r\n\r\n  //Data Structure maintained for Certificates, issued by SmartChain University platform\r\n  struct CertificateStruct {\r\n    address certificateAddress;\r\n\t  bool isCertificate;\r\n\t  uint index;\r\n  }\r\n\r\n  mapping (address => CertificateStruct) private certificateStructs;\r\n  address[] private certificateIndex;\r\n\r\n  //Data Structure maintained for all Students over SmartChain University platform\r\n  struct StudentStruct {\r\n    address studentAddress;\r\n\t  bool isStudent;\r\n\t  uint index;\r\n  }\r\n\r\n  mapping (address => StudentStruct) private studentStructs;\r\n  address[] private studentIndex;\r\n\r\n  //Mere Constructor\r\n  constructor() public {\r\n    owner = msg.sender;  // just set the self\r\n  }\r\n\r\n  //////////////Certificate related methods////////////////////\r\n  //Create certificate object of a batch with one name/identifier with two flags set by DApp\r\n  function createCertificate(address batchAddr, bytes32 _certIdentifier, bool _revoke, bool _expired) public returns (address) {\r\n  \tCertificate cert = new Certificate(batchAddr, _certIdentifier, _revoke, _expired);\r\n  \taddCertificate(address(cert));\r\n  \temit CertificateAddress(address(cert), batchAddr);  //send event of address of new certificate to the DApp\r\n\t  return address(cert);\r\n  }\r\n\r\n  function isCertificateExist(address certAddress) public view returns(bool) {\r\n     if(certificateIndex.length == 0) return false;\r\n\t    return ((certificateIndex[certificateStructs[certAddress].index] == certAddress) && (certificateStructs[certAddress].isCertificate));\r\n  }\r\n\r\n  function getNoOfCertificates() public view returns (uint) {\r\n    return certificateIndex.length;\r\n  }\r\n\r\n  function getCertificateAt(uint index) public view returns (address) {\r\n    if(index <= certificateIndex.length)\r\n      return certificateIndex[index];\r\n    else\r\n      return address(0x00);\r\n  }\r\n\r\n  //add certificate object of the local data structure\r\n  function addCertificate(address certificateAddress) private returns(uint) {\r\n    if(isCertificateExist(certificateAddress)) return uint(9999);\r\n    certificateStructs[certificateAddress].certificateAddress = certificateAddress;\r\n\t  certificateStructs[certificateAddress].isCertificate = true;\r\n    certificateStructs[certificateAddress].index = certificateIndex.push(certificateAddress)-1;\r\n    emit CertificateAdded(true);  //send event the new course is added to the DApp\r\n    return certificateIndex.length-1;\r\n  }\r\n\r\n  //////////////Certificate related methods////////////////////\r\n  //Create student object of a batch with one name/identifier set by DApp\r\n  function addNewStudent(address batchAddress, bytes32 _studentIdentifier) public returns (address) {\r\n    Student student = new Student(_studentIdentifier);\r\n\r\n    address studAddress = address(student);\r\n    addStudent(studAddress);\r\n\r\n    Batch batch = Batch(batchAddress);\r\n    batch.addStudent(studAddress); //To set with Batch\r\n\r\n    emit StudentAddress(studAddress); //send event of address of new student to the DApp\r\n    return studAddress;\r\n  }\r\n\r\n  function isStudentExist(address studAddress) public view returns(bool) {\r\n     if(studentIndex.length == 0) return false;\r\n\t    return ((studentIndex[studentStructs[studAddress].index] == studAddress) && (studentStructs[studAddress].isStudent));\r\n  }\r\n\r\n  function getNoOfStudents() public view returns (uint) {\r\n    return studentIndex.length;\r\n  }\r\n\r\n  function getStudentAt(uint index) public view returns (address) {\r\n    if(index <= studentIndex.length)\r\n      return studentIndex[index];\r\n    else\r\n      return address(0x00);\r\n  }\r\n\r\n  //add student object of the local data structure\r\n  function addStudent(address studentAddress) private returns(uint) {\r\n    if(isStudentExist(studentAddress)) return uint(9999);\r\n    studentStructs[studentAddress].studentAddress = studentAddress;\r\n\t  studentStructs[studentAddress].isStudent = true;\r\n    studentStructs[studentAddress].index = studentIndex.push(studentAddress)-1;\r\n    emit StudentAdded(true);  //send event of address of new strudent is added to the DApp\r\n    return studentIndex.length-1;\r\n  }\r\n\r\n  //////////////Business logic starts from here////////////////////\r\n  //add certificate to the list if it does not exists already. With this, certificate is granted to the student\r\n  function issueCertificate(address batchAddress, address studAddress, address certAddress, bytes32 timestamp) public returns(bool) {\r\n    //Actually granting the certificate\r\n    Student student = Student(studAddress);\r\n    bool flag = student.grantCertificate(batchAddress, certAddress, timestamp);\r\n    emit CertificateGranted(batchAddress,studAddress,certAddress,flag);\r\n    return flag;\r\n  }\r\n\r\n  //The method to set hash of the cert when the given certificate is granted to the given student!!\r\n  function setCertHash(address certAddress, bytes32 certHash) public returns(bool) {\r\n    Certificate cert = Certificate(certAddress);\r\n    return cert.setCertHash(certHash);\r\n  }\r\n\r\n  //The most important method to verify whether the given certificate is granted to the given student or not!!\r\n  function verifyCertificate(address studAddress, address certAddress) public returns(bool) {\r\n    Certificate cert = Certificate(certAddress);\r\n    address batchAddress = cert.getBatchAddress();\r\n    emit VerifyCertificate(studAddress, \"Certificate is associated with Batch :\", batchAddress);\r\n    Batch batch = Batch(batchAddress);\r\n  \tif(!batch.isStudentExist(studAddress)) return false;\r\n\r\n   \tStudent student = Student(studAddress);\r\n  \tif(!student.isCertGranted(certAddress)) return false;\r\n          return true;\r\n  }\r\n\r\n  //Another important method of verification process, whether hash of the given certificate is same as of the sent by the student!!\r\n  function verifyCertHash(address certAddress, bytes32 certHash) public view returns(bool) {\r\n    Certificate cert = Certificate(certAddress);\r\n    return (cert.getCertHash() == certHash);\r\n  }\r\n}\r\n",
  "sourcePath": "/Users/rahulgolash/Rahul/Professional/SmartUniversity/smartuniversity/contracts/CertController.sol",
  "compiler": {
    "name": "solc",
    "version": "0.5.0+commit.1d4f565a.Emscripten.clang"
  },
  "schemaVersion": "3.0.1",
  "updatedAt": "2020-02-21T12:15:02.954Z",
  "devdoc": {
    "methods": {}
  },
  "userdoc": {
    "methods": {
      "addNewStudent(address,bytes32)": {
        "notice": "///////////Certificate related methods////////////////////"
      },
      "createCertificate(address,bytes32,bool,bool)": {
        "notice": "///////////Certificate related methods////////////////////"
      },
      "issueCertificate(address,address,address,bytes32)": {
        "notice": "///////////Business logic starts from here////////////////////"
      }
    }
  }
}