{
  "contractName": "Certificate",
  "abi": [
    {
      "inputs": [
        {
          "name": "batchAddress",
          "type": "address"
        },
        {
          "name": "_certIdentifier",
          "type": "bytes32"
        },
        {
          "name": "_revoke",
          "type": "bool"
        },
        {
          "name": "_expired",
          "type": "bool"
        }
      ],
      "payable": false,
      "stateMutability": "nonpayable",
      "type": "constructor"
    },
    {
      "anonymous": false,
      "inputs": [
        {
          "indexed": false,
          "name": "flag",
          "type": "bool"
        }
      ],
      "name": "CertGrantedCert",
      "type": "event"
    },
    {
      "constant": true,
      "inputs": [],
      "name": "getCertIdentifier",
      "outputs": [
        {
          "name": "",
          "type": "bytes32"
        }
      ],
      "payable": false,
      "stateMutability": "view",
      "type": "function"
    },
    {
      "constant": true,
      "inputs": [],
      "name": "isRevoked",
      "outputs": [
        {
          "name": "",
          "type": "bool"
        }
      ],
      "payable": false,
      "stateMutability": "view",
      "type": "function"
    },
    {
      "constant": false,
      "inputs": [],
      "name": "revokeCert",
      "outputs": [
        {
          "name": "",
          "type": "bool"
        }
      ],
      "payable": false,
      "stateMutability": "nonpayable",
      "type": "function"
    },
    {
      "constant": false,
      "inputs": [],
      "name": "suspendRevocation",
      "outputs": [
        {
          "name": "",
          "type": "bool"
        }
      ],
      "payable": false,
      "stateMutability": "nonpayable",
      "type": "function"
    },
    {
      "constant": true,
      "inputs": [],
      "name": "isExpired",
      "outputs": [
        {
          "name": "",
          "type": "bool"
        }
      ],
      "payable": false,
      "stateMutability": "view",
      "type": "function"
    },
    {
      "constant": false,
      "inputs": [],
      "name": "expireCert",
      "outputs": [
        {
          "name": "",
          "type": "bool"
        }
      ],
      "payable": false,
      "stateMutability": "nonpayable",
      "type": "function"
    },
    {
      "constant": false,
      "inputs": [
        {
          "name": "studentAddress",
          "type": "address"
        },
        {
          "name": "timestamp",
          "type": "bytes32"
        }
      ],
      "name": "grantCertificate",
      "outputs": [
        {
          "name": "",
          "type": "bool"
        }
      ],
      "payable": false,
      "stateMutability": "nonpayable",
      "type": "function"
    },
    {
      "constant": true,
      "inputs": [],
      "name": "getBatchAddress",
      "outputs": [
        {
          "name": "",
          "type": "address"
        }
      ],
      "payable": false,
      "stateMutability": "view",
      "type": "function"
    },
    {
      "constant": true,
      "inputs": [],
      "name": "getGrantedStudent",
      "outputs": [
        {
          "name": "",
          "type": "address"
        }
      ],
      "payable": false,
      "stateMutability": "view",
      "type": "function"
    },
    {
      "constant": true,
      "inputs": [],
      "name": "getCertHash",
      "outputs": [
        {
          "name": "",
          "type": "bytes32"
        }
      ],
      "payable": false,
      "stateMutability": "view",
      "type": "function"
    },
    {
      "constant": false,
      "inputs": [
        {
          "name": "_certHash",
          "type": "bytes32"
        }
      ],
      "name": "setCertHash",
      "outputs": [
        {
          "name": "",
          "type": "bool"
        }
      ],
      "payable": false,
      "stateMutability": "nonpayable",
      "type": "function"
    }
  ],
  "bytecode": "0x608060405234801561001057600080fd5b506040516080806108508339810180604052608081101561003057600080fd5b8101908080519060200190929190805190602001909291908051906020019092919080519060200190929190505050336000806101000a81548173ffffffffffffffffffffffffffffffffffffffff021916908373ffffffffffffffffffffffffffffffffffffffff160217905550336002806101000a81548173ffffffffffffffffffffffffffffffffffffffff021916908373ffffffffffffffffffffffffffffffffffffffff160217905550826001819055506000600360006101000a81548173ffffffffffffffffffffffffffffffffffffffff021916908373ffffffffffffffffffffffffffffffffffffffff16021790555083600460006101000a81548173ffffffffffffffffffffffffffffffffffffffff021916908373ffffffffffffffffffffffffffffffffffffffff16021790555081600260006101000a81548160ff02191690831515021790555080600260016101000a81548160ff021916908315150217905550505050506106a0806101b06000396000f3fe6080604052600436106100ae576000357c0100000000000000000000000000000000000000000000000000000000900463ffffffff16806266cef8146100b3578063054ca3f5146101265780632bc9ed021461017d5780632f13b60c146101ac57806335d38f09146101db578063a69912bd14610206578063b46df7aa14610235578063bf19448614610264578063bfc28f08146102b7578063d82d0cad1461030e578063eb21645814610339575b600080fd5b3480156100bf57600080fd5b5061010c600480360360408110156100d657600080fd5b81019080803573ffffffffffffffffffffffffffffffffffffffff16906020019092919080359060200190929190505050610368565b604051808215151515815260200191505060405180910390f35b34801561013257600080fd5b5061013b610453565b604051808273ffffffffffffffffffffffffffffffffffffffff1673ffffffffffffffffffffffffffffffffffffffff16815260200191505060405180910390f35b34801561018957600080fd5b5061019261047d565b604051808215151515815260200191505060405180910390f35b3480156101b857600080fd5b506101c1610494565b604051808215151515815260200191505060405180910390f35b3480156101e757600080fd5b506101f06104ab565b6040518082815260200191505060405180910390f35b34801561021257600080fd5b5061021b6104b5565b604051808215151515815260200191505060405180910390f35b34801561024157600080fd5b5061024a610534565b604051808215151515815260200191505060405180910390f35b34801561027057600080fd5b5061029d6004803603602081101561028757600080fd5b81019080803590602001909291905050506105b3565b604051808215151515815260200191505060405180910390f35b3480156102c357600080fd5b506102cc6105c1565b604051808273ffffffffffffffffffffffffffffffffffffffff1673ffffffffffffffffffffffffffffffffffffffff16815260200191505060405180910390f35b34801561031a57600080fd5b506103236105eb565b6040518082815260200191505060405180910390f35b34801561034557600080fd5b5061034e6105f5565b604051808215151515815260200191505060405180910390f35b60008060009054906101000a900473ffffffffffffffffffffffffffffffffffffffff1673ffffffffffffffffffffffffffffffffffffffff163373ffffffffffffffffffffffffffffffffffffffff161415156103c557600080fd5b82600360006101000a81548173ffffffffffffffffffffffffffffffffffffffff021916908373ffffffffffffffffffffffffffffffffffffffff160217905550816006819055507f946e6e18e3d30811b9e42d625a4a3ab67ab1bd284c12608a62c70a0bf4f3fd0e6001604051808215151515815260200191505060405180910390a16001905092915050565b6000600460009054906101000a900473ffffffffffffffffffffffffffffffffffffffff16905090565b6000600260009054906101000a900460ff16905090565b6000600260019054906101000a900460ff16905090565b6000600154905090565b60008060009054906101000a900473ffffffffffffffffffffffffffffffffffffffff1673ffffffffffffffffffffffffffffffffffffffff163373ffffffffffffffffffffffffffffffffffffffff1614151561051257600080fd5b6001600260016101000a81548160ff0219169083151502179055506001905090565b60008060009054906101000a900473ffffffffffffffffffffffffffffffffffffffff1673ffffffffffffffffffffffffffffffffffffffff163373ffffffffffffffffffffffffffffffffffffffff1614151561059157600080fd5b6000600260006101000a81548160ff0219169083151502179055506001905090565b600081600581905550919050565b6000600360009054906101000a900473ffffffffffffffffffffffffffffffffffffffff16905090565b6000600554905090565b60008060009054906101000a900473ffffffffffffffffffffffffffffffffffffffff1673ffffffffffffffffffffffffffffffffffffffff163373ffffffffffffffffffffffffffffffffffffffff1614151561065257600080fd5b6001600260006101000a81548160ff021916908315150217905550600190509056fea165627a7a7230582073261a1ccdf635f0ca44ad1296a09ef2717f430059bdd0a3615d2e26a9ce531e0029",
  "source": "//pragma solidity 0.4.23;\r\npragma solidity >=0.5.0 <0.7.0;\r\n\r\nimport \"./Owned.sol\";\r\n\r\n//Certificate domain object which is to depict a certificate state in Blockchain\r\ncontract Certificate is Owned{\r\n  bytes32 private certIdentifier; //Unique indetifier, to be given by DApp\r\n  bool private isRevokedFlag;     //whether certificate is revoked by uni due to any reason\r\n  bool private isExpiredFlag;     //whether certificate is expired or still active\r\n  address private owner;      \t\t//Address of ControllerContract\r\n  address private addressStudent; //Address of Student to whom the certificate is granted\r\n  address private addressBatch;   //Address of Batch to whom the owner Student is part of\r\n  bytes32 private certHash;       //Hash of the certificate saved with DApp by SHA256notaryHash\r\n  bytes32 private issuedOn;       //the timestamp string set by the DApp of which cert is issued to the student\r\n\r\n  //event sent to the DApp when new certificate is granted\r\n  event CertGrantedCert(bool flag);\r\n\r\n  //Constructor of the certificate object, address of parent batch and cert identifier is sent, two flags\r\n  constructor(address batchAddress, bytes32 _certIdentifier, bool _revoke, bool _expired) public {\r\n    owner = msg.sender;  // just set the ControllerContract\r\n    certIdentifier = _certIdentifier;\r\n    addressStudent = address(0x00); //iniialize with null value, really needed?\r\n\t  addressBatch = batchAddress;\r\n    isRevokedFlag = _revoke;\r\n    isExpiredFlag = _expired;\r\n  }\r\n\r\n  //For CertIdentifier\r\n  function getCertIdentifier() public view returns(bytes32) {\r\n      return certIdentifier;\r\n  }\r\n\r\n  //For Revocation\r\n  function isRevoked() public view returns(bool) {\r\n      return isRevokedFlag;\r\n  }\r\n\r\n  //revoke the certificate, done from the DApp\r\n  function revokeCert() public onlyOwner returns(bool) {\r\n      isRevokedFlag = true;\r\n      return true;\r\n  }\r\n\r\n  //Re-invoke the certificate, done from the DApp\r\n  function suspendRevocation() public onlyOwner returns(bool) {\r\n      isRevokedFlag = false;\r\n      return true;\r\n  }\r\n\r\n  //For Expiry\r\n  function isExpired() public view returns(bool) {\r\n      return isExpiredFlag;\r\n  }\r\n\r\n  //expire the certificate, done from the DApp\r\n  function expireCert() public onlyOwner returns(bool) {\r\n      isExpiredFlag = true;\r\n      return true;\r\n  }\r\n\r\n  //here, certificate is associated with a specific student\r\n  function grantCertificate(address studentAddress, bytes32 timestamp) public onlyOwner returns(bool) {\r\n      addressStudent = studentAddress;\r\n      issuedOn = timestamp;\r\n      emit CertGrantedCert(true);\r\n      return true;\r\n  }\r\n\r\n  //For BatchAddress\r\n  function getBatchAddress() public view returns(address) {\r\n      return addressBatch;\r\n  }\r\n\r\n  //For student\r\n  function getGrantedStudent() public view returns(address) {\r\n      return addressStudent;\r\n  }\r\n\r\n  //For cert Hash\r\n  function getCertHash() public view returns(bytes32) {\r\n      return certHash;\r\n  }\r\n\r\n  function setCertHash(bytes32 _certHash) public returns(bool) {\r\n    certHash = _certHash;\r\n  }\r\n}\r\n",
  "sourcePath": "/Users/rahulgolash/Rahul/Professional/SmartUniversity/smartuniversity/contracts/Certificate.sol",
  "compiler": {
    "name": "solc",
    "version": "0.5.0+commit.1d4f565a.Emscripten.clang"
  },
  "schemaVersion": "3.0.1",
  "updatedAt": "2020-02-21T12:15:02.957Z",
  "devdoc": {
    "methods": {}
  },
  "userdoc": {
    "methods": {}
  }
}