{
  "contractName": "ConvertLib",
  "abi": [
    {
      "constant": true,
      "inputs": [
        {
          "name": "amount",
          "type": "uint256"
        },
        {
          "name": "conversionRate",
          "type": "uint256"
        }
      ],
      "name": "convert",
      "outputs": [
        {
          "name": "convertedAmount",
          "type": "uint256"
        }
      ],
      "payable": false,
      "stateMutability": "pure",
      "type": "function"
    },
    {
      "constant": true,
      "inputs": [
        {
          "name": "x",
          "type": "address"
        }
      ],
      "name": "toBytes32",
      "outputs": [
        {
          "name": "",
          "type": "bytes"
        }
      ],
      "payable": false,
      "stateMutability": "pure",
      "type": "function"
    },
    {
      "constant": true,
      "inputs": [
        {
          "name": "x",
          "type": "bytes32"
        }
      ],
      "name": "bytes32ToString",
      "outputs": [
        {
          "name": "",
          "type": "string"
        }
      ],
      "payable": false,
      "stateMutability": "pure",
      "type": "function"
    },
    {
      "constant": true,
      "inputs": [
        {
          "name": "v",
          "type": "uint256"
        }
      ],
      "name": "uintToBytes",
      "outputs": [
        {
          "name": "",
          "type": "bytes"
        }
      ],
      "payable": false,
      "stateMutability": "pure",
      "type": "function"
    }
  ],
  "bytecode": "0x6107d3610030600b82828239805160001a6073146000811461002057610022565bfe5b5030600052607381538281f3fe7300000000000000000000000000000000000000003014608060405260043610610079576000357c0100000000000000000000000000000000000000000000000000000000900463ffffffff16806378ad03691461007e5780639201de551461013b57806394e8767d146101e257806396e4ee3d14610289575b600080fd5b6100c06004803603602081101561009457600080fd5b81019080803573ffffffffffffffffffffffffffffffffffffffff1690602001909291905050506102d5565b6040518080602001828103825283818151815260200191508051906020019080838360005b838110156101005780820151818401526020810190506100e5565b50505050905090810190601f16801561012d5780820380516001836020036101000a031916815260200191505b509250505060405180910390f35b6101676004803603602081101561015157600080fd5b81019080803590602001909291905050506103c0565b6040518080602001828103825283818151815260200191508051906020019080838360005b838110156101a757808201518184015260208101905061018c565b50505050905090810190601f1680156101d45780820380516001836020036101000a031916815260200191505b509250505060405180910390f35b61020e600480360360208110156101f857600080fd5b81019080803590602001909291905050506105bd565b6040518080602001828103825283818151815260200191508051906020019080838360005b8381101561024e578082015181840152602081019050610233565b50505050905090810190601f16801561027b5780820380516001836020036101000a031916815260200191505b509250505060405180910390f35b6102bf6004803603604081101561029f57600080fd5b81019080803590602001909291908035906020019092919050505061079a565b6040518082815260200191505060405180910390f35b60608060146040519080825280601f01601f19166020018201604052801561030c5781602001600182028038833980820191505090505b50905060008090505b60148110156103b6578060130360080260020a8473ffffffffffffffffffffffffffffffffffffffff1681151561034857fe5b047f010000000000000000000000000000000000000000000000000000000000000002828281518110151561037957fe5b9060200101907effffffffffffffffffffffffffffffffffffffffffffffffffffffffffffff1916908160001a9053508080600101915050610315565b5080915050919050565b60608060206040519080825280601f01601f1916602001820160405280156103f75781602001600182028038833980820191505090505b509050600080905060008090505b60208110156104c65760008160080260020a866001900402600102905060007f010000000000000000000000000000000000000000000000000000000000000002817effffffffffffffffffffffffffffffffffffffffffffffffffffffffffffff19161415156104b85780848481518110151561047f57fe5b9060200101907effffffffffffffffffffffffffffffffffffffffffffffffffffffffffffff1916908160001a90535082806001019350505b508080600101915050610405565b506060816040519080825280601f01601f1916602001820160405280156104fc5781602001600182028038833980820191505090505b50905060008090505b828110156105b157838181518110151561051b57fe5b9060200101517f010000000000000000000000000000000000000000000000000000000000000090047f010000000000000000000000000000000000000000000000000000000000000002828281518110151561057457fe5b9060200101907effffffffffffffffffffffffffffffffffffffffffffffffffffffffffffff1916908160001a9053508080600101915050610505565b50809350505050919050565b60606000606490506060816040519080825280601f01601f1916602001820160405280156105fa5781602001600182028038833980820191505090505b50905060008090505b60008514151561069d576000600a8681151561061b57fe5b069050600a8681151561062a57fe5b049550806030017f010000000000000000000000000000000000000000000000000000000000000002838380600101945081518110151561066757fe5b9060200101907effffffffffffffffffffffffffffffffffffffffffffffffffffffffffffff1916908160001a90535050610603565b6060600182016040519080825280601f01601f1916602001820160405280156106d55781602001600182028038833980820191505090505b50905060008090505b828111151561078d57838184038151811015156106f757fe5b9060200101517f010000000000000000000000000000000000000000000000000000000000000090047f010000000000000000000000000000000000000000000000000000000000000002828281518110151561075057fe5b9060200101907effffffffffffffffffffffffffffffffffffffffffffffffffffffffffffff1916908160001a90535080806001019150506106de565b5080945050505050919050565b600081830290509291505056fea165627a7a72305820f29f352c8dcee4e9429d6d24de3d1b655f14710fae10c4ab66fc743d18c9f33a0029",
  "source": "//pragma solidity 0.4.23;\r\npragma solidity >=0.5.0 <0.7.0;\r\n\r\nlibrary ConvertLib{\r\n\tfunction convert(uint amount,uint conversionRate) public pure returns (uint convertedAmount)\r\n\t{\r\n\t\treturn amount * conversionRate;\r\n\t}\r\n\r\n\tfunction toBytes32(address x) public pure returns (bytes memory) {\r\n    bytes memory b = new bytes(20);\r\n    for (uint i = 0; i < 20; i++)\r\n        b[i] = byte(uint8(uint(x) / (2**(8*(19 - i)))));\r\n    return b;\r\n\t}\r\n\r\n\tfunction bytes32ToString(bytes32 x) public pure returns (string memory) {\r\n    bytes memory bytesString = new bytes(32);\r\n    uint charCount = 0;\r\n    for (uint j = 0; j < 32; j++) {\r\n        byte char = byte(bytes32(uint(x) * 2 ** (8 * j)));\r\n        if (char != 0) {\r\n            bytesString[charCount] = char;\r\n            charCount++;\r\n        }\r\n    }\r\n    bytes memory bytesStringTrimmed = new bytes(charCount);\r\n    for (uint j = 0; j < charCount; j++) {\r\n        bytesStringTrimmed[j] = bytesString[j];\r\n    }\r\n    return string(bytesStringTrimmed);\r\n\t}\r\n\r\n\tfunction uintToBytes(uint v) public pure returns (bytes memory) {\r\n        uint maxlength = 100;\r\n        bytes memory reversed = new bytes(maxlength);\r\n        uint i = 0;\r\n        while (v != 0) {\r\n            uint remainder = v % 10;\r\n            v = v / 10;\r\n            reversed[i++] = byte(48 + uint8(remainder));\r\n        }\r\n        bytes memory s = new bytes(i + 1);\r\n        for (uint j = 0; j <= i; j++) {\r\n            s[j] = reversed[i - j];\r\n        }\r\n        //str = string(s);\r\n\t\treturn s;\r\n    }\r\n}\r\n",
  "sourcePath": "/Users/rahulgolash/Rahul/Professional/SmartUniversity/smartuniversity/contracts/ConvertLib.sol",
  "compiler": {
    "name": "solc",
    "version": "0.5.0+commit.1d4f565a.Emscripten.clang"
  },
  "schemaVersion": "3.0.1",
  "updatedAt": "2020-02-21T12:15:02.958Z",
  "devdoc": {
    "methods": {}
  },
  "userdoc": {
    "methods": {}
  }
}