{
  "contractName": "Course",
  "abi": [
    {
      "inputs": [
        {
          "name": "_addressInstitute",
          "type": "address"
        },
        {
          "name": "_courseIdentifier",
          "type": "bytes32"
        }
      ],
      "payable": false,
      "stateMutability": "nonpayable",
      "type": "constructor"
    },
    {
      "anonymous": false,
      "inputs": [
        {
          "indexed": false,
          "name": "flag",
          "type": "bool"
        }
      ],
      "name": "BatchAdded",
      "type": "event"
    },
    {
      "constant": true,
      "inputs": [],
      "name": "getCourseIdentifier",
      "outputs": [
        {
          "name": "",
          "type": "bytes32"
        }
      ],
      "payable": false,
      "stateMutability": "view",
      "type": "function"
    },
    {
      "constant": true,
      "inputs": [],
      "name": "getInstituteAddress",
      "outputs": [
        {
          "name": "",
          "type": "address"
        }
      ],
      "payable": false,
      "stateMutability": "view",
      "type": "function"
    },
    {
      "constant": true,
      "inputs": [
        {
          "name": "batchAddress",
          "type": "address"
        }
      ],
      "name": "isBatchExist",
      "outputs": [
        {
          "name": "",
          "type": "bool"
        }
      ],
      "payable": false,
      "stateMutability": "view",
      "type": "function"
    },
    {
      "constant": false,
      "inputs": [
        {
          "name": "batchAddress",
          "type": "address"
        }
      ],
      "name": "addBatch",
      "outputs": [
        {
          "name": "",
          "type": "uint256"
        }
      ],
      "payable": false,
      "stateMutability": "nonpayable",
      "type": "function"
    },
    {
      "constant": true,
      "inputs": [],
      "name": "getNoOfBatches",
      "outputs": [
        {
          "name": "",
          "type": "uint256"
        }
      ],
      "payable": false,
      "stateMutability": "view",
      "type": "function"
    },
    {
      "constant": true,
      "inputs": [
        {
          "name": "index",
          "type": "uint256"
        }
      ],
      "name": "getBatchAt",
      "outputs": [
        {
          "name": "",
          "type": "address"
        }
      ],
      "payable": false,
      "stateMutability": "view",
      "type": "function"
    },
    {
      "constant": true,
      "inputs": [],
      "name": "getAllBatches",
      "outputs": [
        {
          "name": "",
          "type": "address[20]"
        }
      ],
      "payable": false,
      "stateMutability": "view",
      "type": "function"
    }
  ],
  "bytecode": "0x608060405234801561001057600080fd5b506040516040806109f78339810180604052604081101561003057600080fd5b810190808051906020019092919080519060200190929190505050336000806101000a81548173ffffffffffffffffffffffffffffffffffffffff021916908373ffffffffffffffffffffffffffffffffffffffff16021790555033600160006101000a81548173ffffffffffffffffffffffffffffffffffffffff021916908373ffffffffffffffffffffffffffffffffffffffff1602179055508060038190555081600260006101000a81548173ffffffffffffffffffffffffffffffffffffffff021916908373ffffffffffffffffffffffffffffffffffffffff16021790555050506108d2806101256000396000f3fe608060405260043610610083576000357c0100000000000000000000000000000000000000000000000000000000900463ffffffff1680635b6f2d881461008857806368f4e66e146101035780637823ff8b1461012e5780637ed207be14610193578063c5eb8bac146101be578063e80e076b14610215578063e85e06f014610268575b600080fd5b34801561009457600080fd5b506100c1600480360360208110156100ab57600080fd5b81019080803590602001909291905050506102d1565b604051808273ffffffffffffffffffffffffffffffffffffffff1673ffffffffffffffffffffffffffffffffffffffff16815260200191505060405180910390f35b34801561010f57600080fd5b5061011861032b565b6040518082815260200191505060405180910390f35b34801561013a57600080fd5b5061017d6004803603602081101561015157600080fd5b81019080803573ffffffffffffffffffffffffffffffffffffffff169060200190929190505050610338565b6040518082815260200191505060405180910390f35b34801561019f57600080fd5b506101a8610584565b6040518082815260200191505060405180910390f35b3480156101ca57600080fd5b506101d361058e565b604051808273ffffffffffffffffffffffffffffffffffffffff1673ffffffffffffffffffffffffffffffffffffffff16815260200191505060405180910390f35b34801561022157600080fd5b5061022a6105b8565b6040518082601460200280838360005b8381101561025557808201518184015260208101905061023a565b5050505090500191505060405180910390f35b34801561027457600080fd5b506102b76004803603602081101561028b57600080fd5b81019080803573ffffffffffffffffffffffffffffffffffffffff169060200190929190505050610760565b604051808215151515815260200191505060405180910390f35b6000600580549050821015610321576005828154811015156102ef57fe5b9060005260206000200160009054906101000a900473ffffffffffffffffffffffffffffffffffffffff169050610326565b600090505b919050565b6000600580549050905090565b60008060009054906101000a900473ffffffffffffffffffffffffffffffffffffffff1673ffffffffffffffffffffffffffffffffffffffff163373ffffffffffffffffffffffffffffffffffffffff1614151561039557600080fd5b61039e82610760565b156103ad5761270f905061057f565b81600460008473ffffffffffffffffffffffffffffffffffffffff1673ffffffffffffffffffffffffffffffffffffffff16815260200190815260200160002060000160006101000a81548173ffffffffffffffffffffffffffffffffffffffff021916908373ffffffffffffffffffffffffffffffffffffffff1602179055506001600460008473ffffffffffffffffffffffffffffffffffffffff1673ffffffffffffffffffffffffffffffffffffffff16815260200190815260200160002060000160146101000a81548160ff021916908315150217905550600160058390806001815401808255809150509060018203906000526020600020016000909192909190916101000a81548173ffffffffffffffffffffffffffffffffffffffff021916908373ffffffffffffffffffffffffffffffffffffffff16021790555003600460008473ffffffffffffffffffffffffffffffffffffffff1673ffffffffffffffffffffffffffffffffffffffff168152602001908152602001600020600101819055507f5cb3d321e76a952cc99f47e21b97e6f352024c1f8f8bb5c3ebf06537d8e7a80a6001604051808215151515815260200191505060405180910390a160016005805490500390505b919050565b6000600354905090565b6000600260009054906101000a900473ffffffffffffffffffffffffffffffffffffffff16905090565b6105c0610882565b6105c8610882565b60008090505b60058054905081101561075857600460006005838154811015156105ee57fe5b9060005260206000200160009054906101000a900473ffffffffffffffffffffffffffffffffffffffff1673ffffffffffffffffffffffffffffffffffffffff1673ffffffffffffffffffffffffffffffffffffffff16815260200190815260200160002060000160149054906101000a900460ff161561074b576004600060058381548110151561067c57fe5b9060005260206000200160009054906101000a900473ffffffffffffffffffffffffffffffffffffffff1673ffffffffffffffffffffffffffffffffffffffff1673ffffffffffffffffffffffffffffffffffffffff16815260200190815260200160002060000160009054906101000a900473ffffffffffffffffffffffffffffffffffffffff16828260148110151561071357fe5b602002019073ffffffffffffffffffffffffffffffffffffffff16908173ffffffffffffffffffffffffffffffffffffffff16815250505b80806001019150506105ce565b508091505090565b6000806005805490501415610778576000905061087d565b8173ffffffffffffffffffffffffffffffffffffffff166005600460008573ffffffffffffffffffffffffffffffffffffffff1673ffffffffffffffffffffffffffffffffffffffff168152602001908152602001600020600101548154811015156107e057fe5b9060005260206000200160009054906101000a900473ffffffffffffffffffffffffffffffffffffffff1673ffffffffffffffffffffffffffffffffffffffff1614801561087a5750600460008373ffffffffffffffffffffffffffffffffffffffff1673ffffffffffffffffffffffffffffffffffffffff16815260200190815260200160002060000160149054906101000a900460ff165b90505b919050565b6102806040519081016040528060149060208202803883398082019150509050509056fea165627a7a7230582021d00fd65e41b8911b28eb6e371df61fd66cd7021005a49de196db596500900a0029",
  "source": "//pragma solidity 0.4.23;\r\npragma solidity >=0.5.0 <0.7.0;\r\n\r\nimport \"./Batch.sol\";\r\nimport \"./Owned.sol\";\r\n\r\n//Course domain object which is to depict a course state in Blockchain\r\ncontract Course is Owned{\r\n  address private owner;      \t\t\t\t//Address of ControllerContract\r\n  address private addressInstitute;   //Address of Institute\r\n  bytes32 private courseIdentifier;   //Unique indetifier, to be given by DApp\r\n\r\n  //event sent to the DApp when new Batch is added to the course\r\n  event BatchAdded(bool flag);\r\n\r\n  //Data Structure maintained for batches of the given course\r\n  struct BatchStruct {\r\n    address batchData;\r\n    bool isBatch;\r\n\t  uint index;\r\n  }\r\n  mapping (address => BatchStruct) private batchStructs;\r\n  address[] private batchIndex;\r\n\r\n  //Constructor of the course object, address of parent institute and course identifier is sent\r\n  constructor(address _addressInstitute, bytes32 _courseIdentifier) public {\r\n    owner = msg.sender;  // just set the ControllerContract\r\n    courseIdentifier = _courseIdentifier;\r\n    addressInstitute = _addressInstitute;\r\n  }\r\n\r\n  //For courseIdentifier\r\n  function getCourseIdentifier() public view returns(bytes32) {\r\n      return courseIdentifier;\r\n  }\r\n\r\n  //For addressInstitute\r\n  function getInstituteAddress() public view returns(address) {\r\n      return addressInstitute;\r\n  }\r\n\r\n  //Check whether Batch already exists\r\n  function isBatchExist(address batchAddress) public view returns(bool) {\r\n    if(batchIndex.length == 0) return false;\r\n\t    return ((batchIndex[batchStructs[batchAddress].index] == batchAddress) && (batchStructs[batchAddress].isBatch));\r\n  }\r\n\r\n  //add the new batch to the list, if it does not exists already\r\n  function addBatch(address batchAddress) public onlyOwner returns(uint) {\r\n    if(isBatchExist(batchAddress)) return uint(9999); //9999 is merely a number sent to the callee, signifying the given batch of the course already exists\r\n    batchStructs[batchAddress].batchData = batchAddress;\r\n\t  batchStructs[batchAddress].isBatch = true;\r\n    batchStructs[batchAddress].index = batchIndex.push(batchAddress)-1;\r\n    emit BatchAdded(true);\r\n    return batchIndex.length-1;\r\n  }\r\n\r\n  //Get the number of batches under the course\r\n  function getNoOfBatches() public view returns (uint) {\r\n    return batchIndex.length;\r\n  }\r\n\r\n  //Get the batch address against the index\r\n  function getBatchAt(uint index) public view returns (address) {\r\n  \tif(index < batchIndex.length)\r\n  \t\treturn batchIndex[index];\r\n  \telse\r\n  \t\treturn address(0x00); //return null value in the case of index invalid\r\n  }\r\n\r\n  //Currently, there is no standard support from solidity to pass dynamic aray as input parameter! Assuming that no of batches will not be more than 20\r\n  function getAllBatches() public view returns(address[20] memory) {\r\n    address[20] memory batchesArray;\r\n    for (uint index = 0; index < batchIndex.length; index++) {\r\n    if(batchStructs[batchIndex[index]].isBatch) //If flag is true\r\n      batchesArray[index] = batchStructs[batchIndex[index]].batchData;\r\n    }\r\n    return batchesArray;\r\n  }\r\n}\r\n",
  "sourcePath": "/Users/rahulgolash/Rahul/Professional/SmartUniversity/smartuniversity/contracts/Course.sol",
  "compiler": {
    "name": "solc",
    "version": "0.5.0+commit.1d4f565a.Emscripten.clang"
  },
  "schemaVersion": "3.0.1",
  "updatedAt": "2020-02-21T12:15:02.959Z",
  "devdoc": {
    "methods": {}
  },
  "userdoc": {
    "methods": {}
  }
}