{
  "contractName": "Institute",
  "abi": [
    {
      "inputs": [
        {
          "name": "_addressUniversity",
          "type": "address"
        },
        {
          "name": "_instituteIdentifier",
          "type": "bytes32"
        }
      ],
      "payable": false,
      "stateMutability": "nonpayable",
      "type": "constructor"
    },
    {
      "anonymous": false,
      "inputs": [
        {
          "indexed": false,
          "name": "flag",
          "type": "bool"
        }
      ],
      "name": "CourseAdded",
      "type": "event"
    },
    {
      "constant": true,
      "inputs": [],
      "name": "getAddressUniversity",
      "outputs": [
        {
          "name": "",
          "type": "address"
        }
      ],
      "payable": false,
      "stateMutability": "view",
      "type": "function"
    },
    {
      "constant": true,
      "inputs": [],
      "name": "getInstituteIdentifier",
      "outputs": [
        {
          "name": "",
          "type": "bytes32"
        }
      ],
      "payable": false,
      "stateMutability": "view",
      "type": "function"
    },
    {
      "constant": true,
      "inputs": [
        {
          "name": "courseAddress",
          "type": "address"
        }
      ],
      "name": "isCourseExist",
      "outputs": [
        {
          "name": "isIndeed",
          "type": "bool"
        }
      ],
      "payable": false,
      "stateMutability": "view",
      "type": "function"
    },
    {
      "constant": false,
      "inputs": [
        {
          "name": "courseAddress",
          "type": "address"
        }
      ],
      "name": "addCourse",
      "outputs": [
        {
          "name": "",
          "type": "uint256"
        }
      ],
      "payable": false,
      "stateMutability": "nonpayable",
      "type": "function"
    },
    {
      "constant": true,
      "inputs": [],
      "name": "getNoOfCourses",
      "outputs": [
        {
          "name": "",
          "type": "uint256"
        }
      ],
      "payable": false,
      "stateMutability": "view",
      "type": "function"
    },
    {
      "constant": true,
      "inputs": [
        {
          "name": "index",
          "type": "uint256"
        }
      ],
      "name": "getCourseAt",
      "outputs": [
        {
          "name": "",
          "type": "address"
        }
      ],
      "payable": false,
      "stateMutability": "view",
      "type": "function"
    },
    {
      "constant": true,
      "inputs": [],
      "name": "getAllCourses",
      "outputs": [
        {
          "name": "",
          "type": "address[25]"
        }
      ],
      "payable": false,
      "stateMutability": "view",
      "type": "function"
    }
  ],
  "bytecode": "0x608060405234801561001057600080fd5b506040516040806109f78339810180604052604081101561003057600080fd5b810190808051906020019092919080519060200190929190505050336000806101000a81548173ffffffffffffffffffffffffffffffffffffffff021916908373ffffffffffffffffffffffffffffffffffffffff16021790555033600160006101000a81548173ffffffffffffffffffffffffffffffffffffffff021916908373ffffffffffffffffffffffffffffffffffffffff16021790555081600260006101000a81548173ffffffffffffffffffffffffffffffffffffffff021916908373ffffffffffffffffffffffffffffffffffffffff1602179055508060038190555050506108d2806101256000396000f3fe608060405260043610610083576000357c0100000000000000000000000000000000000000000000000000000000900463ffffffff16806304e48bd1146100885780631cc80b2f146100db5780633cd5f8ea146101065780633e39b6ec1461016b57806368a1447f146101e657806369f59abd1461023d578063ece5c44c14610268575b600080fd5b34801561009457600080fd5b5061009d6102d1565b6040518082601960200280838360005b838110156100c85780820151818401526020810190506100ad565b5050505090500191505060405180910390f35b3480156100e757600080fd5b506100f0610479565b6040518082815260200191505060405180910390f35b34801561011257600080fd5b506101556004803603602081101561012957600080fd5b81019080803573ffffffffffffffffffffffffffffffffffffffff169060200190929190505050610486565b6040518082815260200191505060405180910390f35b34801561017757600080fd5b506101a46004803603602081101561018e57600080fd5b81019080803590602001909291905050506106d2565b604051808273ffffffffffffffffffffffffffffffffffffffff1673ffffffffffffffffffffffffffffffffffffffff16815260200191505060405180910390f35b3480156101f257600080fd5b506101fb61072c565b604051808273ffffffffffffffffffffffffffffffffffffffff1673ffffffffffffffffffffffffffffffffffffffff16815260200191505060405180910390f35b34801561024957600080fd5b50610252610756565b6040518082815260200191505060405180910390f35b34801561027457600080fd5b506102b76004803603602081101561028b57600080fd5b81019080803573ffffffffffffffffffffffffffffffffffffffff169060200190929190505050610760565b604051808215151515815260200191505060405180910390f35b6102d9610882565b6102e1610882565b60008090505b600580549050811015610471576004600060058381548110151561030757fe5b9060005260206000200160009054906101000a900473ffffffffffffffffffffffffffffffffffffffff1673ffffffffffffffffffffffffffffffffffffffff1673ffffffffffffffffffffffffffffffffffffffff16815260200190815260200160002060000160149054906101000a900460ff1615610464576004600060058381548110151561039557fe5b9060005260206000200160009054906101000a900473ffffffffffffffffffffffffffffffffffffffff1673ffffffffffffffffffffffffffffffffffffffff1673ffffffffffffffffffffffffffffffffffffffff16815260200190815260200160002060000160009054906101000a900473ffffffffffffffffffffffffffffffffffffffff16828260198110151561042c57fe5b602002019073ffffffffffffffffffffffffffffffffffffffff16908173ffffffffffffffffffffffffffffffffffffffff16815250505b80806001019150506102e7565b508091505090565b6000600580549050905090565b60008060009054906101000a900473ffffffffffffffffffffffffffffffffffffffff1673ffffffffffffffffffffffffffffffffffffffff163373ffffffffffffffffffffffffffffffffffffffff161415156104e357600080fd5b6104ec82610760565b156104fb5761270f90506106cd565b81600460008473ffffffffffffffffffffffffffffffffffffffff1673ffffffffffffffffffffffffffffffffffffffff16815260200190815260200160002060000160006101000a81548173ffffffffffffffffffffffffffffffffffffffff021916908373ffffffffffffffffffffffffffffffffffffffff1602179055506001600460008473ffffffffffffffffffffffffffffffffffffffff1673ffffffffffffffffffffffffffffffffffffffff16815260200190815260200160002060000160146101000a81548160ff021916908315150217905550600160058390806001815401808255809150509060018203906000526020600020016000909192909190916101000a81548173ffffffffffffffffffffffffffffffffffffffff021916908373ffffffffffffffffffffffffffffffffffffffff16021790555003600460008473ffffffffffffffffffffffffffffffffffffffff1673ffffffffffffffffffffffffffffffffffffffff168152602001908152602001600020600101819055507f2e835230ac666725ea11b1655c76a95cfdfd2ffbf0a64536be06c34c9e4213ba6001604051808215151515815260200191505060405180910390a160016005805490500390505b919050565b6000600580549050821015610722576005828154811015156106f057fe5b9060005260206000200160009054906101000a900473ffffffffffffffffffffffffffffffffffffffff169050610727565b600090505b919050565b6000600260009054906101000a900473ffffffffffffffffffffffffffffffffffffffff16905090565b6000600354905090565b6000806005805490501415610778576000905061087d565b8173ffffffffffffffffffffffffffffffffffffffff166005600460008573ffffffffffffffffffffffffffffffffffffffff1673ffffffffffffffffffffffffffffffffffffffff168152602001908152602001600020600101548154811015156107e057fe5b9060005260206000200160009054906101000a900473ffffffffffffffffffffffffffffffffffffffff1673ffffffffffffffffffffffffffffffffffffffff1614801561087a5750600460008373ffffffffffffffffffffffffffffffffffffffff1673ffffffffffffffffffffffffffffffffffffffff16815260200190815260200160002060000160149054906101000a900460ff165b90505b919050565b6103206040519081016040528060199060208202803883398082019150509050509056fea165627a7a72305820318e307b7f4a2657c1b9a55c696869fb796472c0206392c2eeb145de07babee30029",
  "source": "//pragma solidity 0.4.23;\r\npragma solidity >=0.5.0 <0.7.0;\r\n\r\nimport \"./Course.sol\";\r\nimport \"./Owned.sol\";\r\n\r\n//Institute domain object which is to depict an institute state in Blockchain\r\ncontract Institute is Owned{\r\n  address private owner;      \t\t      //Address of ControllerContract\r\n  address private addressUniversity;    //Address of University\r\n  bytes32 private instituteIdentifier;  //identifier String of Institute, set from the DApp\r\n\r\n  //event sent to the DApp when new Course is added to the Institute\r\n  event CourseAdded(bool flag);\r\n\r\n  //Data Structure maintained for Courses run by Institute\r\n  struct courseStruct {\r\n      address courseAddress;\r\n      bool isCourse;\r\n      uint index;\r\n  }\r\n  mapping (address => courseStruct) private courseStructs;\r\n  address[] private courseIndex;\r\n\r\n  //Constructor of the institute object, address of parent University and institute identifier is sent\r\n  constructor(address _addressUniversity, bytes32 _instituteIdentifier) public {\r\n    owner = msg.sender;  // just set the self\r\n    addressUniversity = _addressUniversity;\r\n    instituteIdentifier = _instituteIdentifier;\r\n  }\r\n\r\n  //For addressUniversity\r\n  function getAddressUniversity() public view returns(address) {\r\n      return addressUniversity;\r\n  }\r\n\r\n  //For courseIdentifier\r\n  function getInstituteIdentifier() public view returns(bytes32) {\r\n      return instituteIdentifier;\r\n  }\r\n\r\n  //Check whether Course already exists\r\n  function isCourseExist(address courseAddress) public view returns(bool isIndeed) {\r\n    if(courseIndex.length == 0) return false;\r\n     return ((courseIndex[courseStructs[courseAddress].index] == courseAddress) && (courseStructs[courseAddress].isCourse));\r\n  }\r\n\r\n  //add the new course to the list, if it does not exists already\r\n  function addCourse(address courseAddress) public onlyOwner returns(uint) {\r\n      if(isCourseExist(courseAddress)) return uint(9999); //9999 is merely a number sent to the callee, signifying the given course already exists\r\n      courseStructs[courseAddress].courseAddress = courseAddress;\r\n      courseStructs[courseAddress].isCourse = true;\r\n      courseStructs[courseAddress].index = courseIndex.push(courseAddress)-1;\r\n      emit CourseAdded(true);\r\n      return courseIndex.length-1;\r\n  }\r\n\r\n  //Get the total no of courses\r\n  function getNoOfCourses() public view returns (uint) {\r\n    return courseIndex.length;\r\n  }\r\n\r\n  //Get the Course at the given index\r\n  function getCourseAt(uint index) public view returns (address) {\r\n  \tif(index < courseIndex.length)\r\n  \t\treturn courseIndex[index];\r\n  \telse\r\n  \t\treturn address(0x00); //return null value in the case of invalid index\r\n  }\r\n\r\n  //Currently, there is no standard practice to pass dynamic aray as input parameter! Assuming that no of courses will not be more than 25\r\n  function getAllCourses() public view returns(address[25] memory) {\r\n    address[25] memory coursesArray;\r\n    for (uint index = 0; index < courseIndex.length; index++) {\r\n    if(courseStructs[courseIndex[index]].isCourse) //If flag is true\r\n      coursesArray[index] = courseStructs[courseIndex[index]].courseAddress;\r\n    }\r\n    return coursesArray;\r\n  }\r\n}\r\n",
  "sourcePath": "/Users/rahulgolash/Rahul/Professional/SmartUniversity/smartuniversity/contracts/Institute.sol",
  "compiler": {
    "name": "solc",
    "version": "0.5.0+commit.1d4f565a.Emscripten.clang"
  },
  "schemaVersion": "3.0.1",
  "updatedAt": "2020-02-21T12:15:02.960Z",
  "devdoc": {
    "methods": {}
  },
  "userdoc": {
    "methods": {}
  }
}