{
  "contractName": "Student",
  "abi": [
    {
      "inputs": [
        {
          "name": "_studentIdentifier",
          "type": "bytes32"
        }
      ],
      "payable": false,
      "stateMutability": "nonpayable",
      "type": "constructor"
    },
    {
      "constant": true,
      "inputs": [
        {
          "name": "certAddress",
          "type": "address"
        }
      ],
      "name": "isCertGranted",
      "outputs": [
        {
          "name": "",
          "type": "bool"
        }
      ],
      "payable": false,
      "stateMutability": "view",
      "type": "function"
    },
    {
      "constant": false,
      "inputs": [
        {
          "name": "_batchAddress",
          "type": "address"
        },
        {
          "name": "certAddress",
          "type": "address"
        },
        {
          "name": "timestamp",
          "type": "bytes32"
        }
      ],
      "name": "grantCertificate",
      "outputs": [
        {
          "name": "",
          "type": "bool"
        }
      ],
      "payable": false,
      "stateMutability": "nonpayable",
      "type": "function"
    },
    {
      "constant": true,
      "inputs": [],
      "name": "getBatchAddress",
      "outputs": [
        {
          "name": "",
          "type": "address"
        }
      ],
      "payable": false,
      "stateMutability": "view",
      "type": "function"
    },
    {
      "constant": true,
      "inputs": [
        {
          "name": "index",
          "type": "uint256"
        }
      ],
      "name": "getCertificateAt",
      "outputs": [
        {
          "name": "",
          "type": "address"
        }
      ],
      "payable": false,
      "stateMutability": "view",
      "type": "function"
    },
    {
      "constant": true,
      "inputs": [],
      "name": "getNoOfCertificates",
      "outputs": [
        {
          "name": "",
          "type": "uint256"
        }
      ],
      "payable": false,
      "stateMutability": "view",
      "type": "function"
    },
    {
      "constant": true,
      "inputs": [],
      "name": "getAllCertificate",
      "outputs": [
        {
          "name": "",
          "type": "address[20]"
        }
      ],
      "payable": false,
      "stateMutability": "view",
      "type": "function"
    }
  ],
  "bytecode": "0x608060405234801561001057600080fd5b50604051602080610a7c8339810180604052602081101561003057600080fd5b8101908080519060200190929190505050336000806101000a81548173ffffffffffffffffffffffffffffffffffffffff021916908373ffffffffffffffffffffffffffffffffffffffff16021790555033600160006101000a81548173ffffffffffffffffffffffffffffffffffffffff021916908373ffffffffffffffffffffffffffffffffffffffff16021790555080600381905550506109a3806100d96000396000f3fe608060405260043610610078576000357c0100000000000000000000000000000000000000000000000000000000900463ffffffff168063054ca3f51461007d5780631ada7c68146100d45780631bb0a4121461016757806333ce361e146101d0578063bd69b3811461024b578063ecadd44314610276575b600080fd5b34801561008957600080fd5b506100926102c9565b604051808273ffffffffffffffffffffffffffffffffffffffff1673ffffffffffffffffffffffffffffffffffffffff16815260200191505060405180910390f35b3480156100e057600080fd5b5061014d600480360360608110156100f757600080fd5b81019080803573ffffffffffffffffffffffffffffffffffffffff169060200190929190803573ffffffffffffffffffffffffffffffffffffffff169060200190929190803590602001909291905050506102f3565b604051808215151515815260200191505060405180910390f35b34801561017357600080fd5b506101b66004803603602081101561018a57600080fd5b81019080803573ffffffffffffffffffffffffffffffffffffffff169060200190929190505050610622565b604051808215151515815260200191505060405180910390f35b3480156101dc57600080fd5b50610209600480360360208110156101f357600080fd5b8101908080359060200190929190505050610744565b604051808273ffffffffffffffffffffffffffffffffffffffff1673ffffffffffffffffffffffffffffffffffffffff16815260200191505060405180910390f35b34801561025757600080fd5b5061026061079e565b6040518082815260200191505060405180910390f35b34801561028257600080fd5b5061028b6107ab565b6040518082601460200280838360005b838110156102b657808201518184015260208101905061029b565b5050505090500191505060405180910390f35b6000600260009054906101000a900473ffffffffffffffffffffffffffffffffffffffff16905090565b60008060009054906101000a900473ffffffffffffffffffffffffffffffffffffffff1673ffffffffffffffffffffffffffffffffffffffff163373ffffffffffffffffffffffffffffffffffffffff1614151561035057600080fd5b61035983610622565b15610367576001905061061b565b60008390508073ffffffffffffffffffffffffffffffffffffffff166266cef830856040518363ffffffff167c0100000000000000000000000000000000000000000000000000000000028152600401808373ffffffffffffffffffffffffffffffffffffffff1673ffffffffffffffffffffffffffffffffffffffff16815260200182815260200192505050602060405180830381600087803b15801561040e57600080fd5b505af1158015610422573d6000803e3d6000fd5b505050506040513d602081101561043857600080fd5b81019080805190602001909291905050505083600460008673ffffffffffffffffffffffffffffffffffffffff1673ffffffffffffffffffffffffffffffffffffffff16815260200190815260200160002060000160006101000a81548173ffffffffffffffffffffffffffffffffffffffff021916908373ffffffffffffffffffffffffffffffffffffffff1602179055506001600460008673ffffffffffffffffffffffffffffffffffffffff1673ffffffffffffffffffffffffffffffffffffffff16815260200190815260200160002060000160146101000a81548160ff021916908315150217905550600160058590806001815401808255809150509060018203906000526020600020016000909192909190916101000a81548173ffffffffffffffffffffffffffffffffffffffff021916908373ffffffffffffffffffffffffffffffffffffffff16021790555003600460008673ffffffffffffffffffffffffffffffffffffffff1673ffffffffffffffffffffffffffffffffffffffff1681526020019081526020016000206001018190555084600260006101000a81548173ffffffffffffffffffffffffffffffffffffffff021916908373ffffffffffffffffffffffffffffffffffffffff16021790555060019150505b9392505050565b600080600580549050141561063a576000905061073f565b8173ffffffffffffffffffffffffffffffffffffffff166005600460008573ffffffffffffffffffffffffffffffffffffffff1673ffffffffffffffffffffffffffffffffffffffff168152602001908152602001600020600101548154811015156106a257fe5b9060005260206000200160009054906101000a900473ffffffffffffffffffffffffffffffffffffffff1673ffffffffffffffffffffffffffffffffffffffff1614801561073c5750600460008373ffffffffffffffffffffffffffffffffffffffff1673ffffffffffffffffffffffffffffffffffffffff16815260200190815260200160002060000160149054906101000a900460ff165b90505b919050565b60006005805490508210156107945760058281548110151561076257fe5b9060005260206000200160009054906101000a900473ffffffffffffffffffffffffffffffffffffffff169050610799565b600090505b919050565b6000600580549050905090565b6107b3610953565b6107bb610953565b60008090505b60058054905081101561094b57600460006005838154811015156107e157fe5b9060005260206000200160009054906101000a900473ffffffffffffffffffffffffffffffffffffffff1673ffffffffffffffffffffffffffffffffffffffff1673ffffffffffffffffffffffffffffffffffffffff16815260200190815260200160002060000160149054906101000a900460ff161561093e576004600060058381548110151561086f57fe5b9060005260206000200160009054906101000a900473ffffffffffffffffffffffffffffffffffffffff1673ffffffffffffffffffffffffffffffffffffffff1673ffffffffffffffffffffffffffffffffffffffff16815260200190815260200160002060000160009054906101000a900473ffffffffffffffffffffffffffffffffffffffff16828260148110151561090657fe5b602002019073ffffffffffffffffffffffffffffffffffffffff16908173ffffffffffffffffffffffffffffffffffffffff16815250505b80806001019150506107c1565b508091505090565b6102806040519081016040528060149060208202803883398082019150509050509056fea165627a7a723058208ff4c4c602b77ec232746b2331d805c48d6ce54dca7a93ec64cd482c39c2e95f0029",
  "source": "//pragma solidity 0.4.23;\r\npragma solidity >=0.5.0 <0.7.0;\r\n\r\nimport \"./Certificate.sol\";\r\nimport \"./Owned.sol\";\r\n\r\n//Student domain object which is to depict a student state in Blockchain\r\ncontract Student is Owned{\r\n  address private owner;      \t\t\t\t//Address of ControllerContract\r\n  address private batchAddress;       //Address of Batch, which student is part of!\r\n  bytes32 private studentIdentifier;  //student identifier, sent by DApp\r\n\r\n  //event sent to the DApp when new certificate is granted to the student\r\n  //event CertGranted(bool flag);\r\n\r\n  //Data Structure maintained for Certificates\r\n  struct CertStruct {\r\n      address certificateAddress;\r\n\t    bool isCertificateGranted;\r\n\t    uint index;\r\n  }\r\n  mapping (address => CertStruct) private certStructs;\r\n  address[] private certIndex;\r\n\r\n  //Constructor of the student object, student identifier is sent\r\n  constructor(bytes32 _studentIdentifier) public {\r\n    owner = msg.sender;  // just set the ControllerContract\r\n    studentIdentifier = _studentIdentifier;\r\n  }\r\n\r\n  //Check whether Certificate already granted\r\n  function isCertGranted(address certAddress) public view returns(bool) {\r\n    if(certIndex.length == 0) return false;\r\n\t  return ((certIndex[certStructs[certAddress].index] == certAddress) && (certStructs[certAddress].isCertificateGranted));\r\n  }\r\n\r\n  //add certificate to the list if it does not exists already. With this, certificate is granted to the student\r\n  function grantCertificate(address _batchAddress, address certAddress, bytes32 timestamp) public onlyOwner returns(bool) {\r\n    if(isCertGranted(certAddress)) return true;\r\n\r\n    //assign the timestamp\r\n    Certificate cert = Certificate(certAddress);\r\n    cert.grantCertificate(address(this), timestamp);\r\n\r\n    certStructs[certAddress].certificateAddress = certAddress;\r\n\t  certStructs[certAddress].isCertificateGranted = true;\r\n    certStructs[certAddress].index = certIndex.push(certAddress)-1;\r\n\r\n    batchAddress = _batchAddress;\r\n    return true;\r\n  }\r\n\r\n  //get parent batch address\r\n  function getBatchAddress() public view returns (address) {\r\n  \treturn batchAddress;\r\n  }\r\n\r\n  //Check whether Student already exists\r\n  function getCertificateAt(uint index) public view returns (address) {\r\n  \tif(index < certIndex.length)\r\n  \t\treturn certIndex[index];\r\n  \telse\r\n  \t\treturn address(0x00); //return null value in the case of index invalid\r\n  }\r\n\r\n  //Check whether Student already exists\r\n  function getNoOfCertificates() public view returns (uint) {\r\n    return certIndex.length;\r\n  }\r\n\r\n  //Currently, there is no standard support from solidity to pass dynamic aray as input parameter! Assuming that no of certificates will not be more than 20\r\n  function getAllCertificate() public view returns(address[20] memory) {\r\n     address[20] memory certificatesArray;\r\n     for (uint index = 0; index < certIndex.length; index++) {\r\n\t\tif(certStructs[certIndex[index]].isCertificateGranted) //If flag is true\r\n        certificatesArray[index] = certStructs[certIndex[index]].certificateAddress;\r\n     }\r\n     return certificatesArray;\r\n  }\r\n}\r\n",
  "sourcePath": "/Users/rahulgolash/Rahul/Professional/SmartUniversity/smartuniversity/contracts/Student.sol",
  "compiler": {
    "name": "solc",
    "version": "0.5.0+commit.1d4f565a.Emscripten.clang"
  },
  "schemaVersion": "3.0.1",
  "updatedAt": "2020-02-21T12:15:02.961Z",
  "devdoc": {
    "methods": {}
  },
  "userdoc": {
    "methods": {}
  }
}