{
  "contractName": "UniController",
  "abi": [
    {
      "inputs": [],
      "payable": false,
      "stateMutability": "nonpayable",
      "type": "constructor"
    },
    {
      "anonymous": false,
      "inputs": [
        {
          "indexed": false,
          "name": "message",
          "type": "string"
        },
        {
          "indexed": false,
          "name": "univ",
          "type": "address"
        }
      ],
      "name": "UniversityAddress",
      "type": "event"
    },
    {
      "anonymous": false,
      "inputs": [
        {
          "indexed": false,
          "name": "message",
          "type": "string"
        },
        {
          "indexed": false,
          "name": "institute",
          "type": "address"
        }
      ],
      "name": "InstituteAddress",
      "type": "event"
    },
    {
      "anonymous": false,
      "inputs": [
        {
          "indexed": false,
          "name": "message",
          "type": "string"
        },
        {
          "indexed": false,
          "name": "course",
          "type": "address"
        }
      ],
      "name": "CourseAddress",
      "type": "event"
    },
    {
      "anonymous": false,
      "inputs": [
        {
          "indexed": false,
          "name": "message",
          "type": "string"
        },
        {
          "indexed": false,
          "name": "batch",
          "type": "address"
        }
      ],
      "name": "BatchAddress",
      "type": "event"
    },
    {
      "anonymous": false,
      "inputs": [
        {
          "indexed": false,
          "name": "flag",
          "type": "bool"
        }
      ],
      "name": "UniversityAdded",
      "type": "event"
    },
    {
      "constant": false,
      "inputs": [
        {
          "name": "_univName",
          "type": "bytes32"
        }
      ],
      "name": "createUniversity",
      "outputs": [
        {
          "name": "",
          "type": "address"
        }
      ],
      "payable": false,
      "stateMutability": "nonpayable",
      "type": "function"
    },
    {
      "constant": true,
      "inputs": [
        {
          "name": "uniAddress",
          "type": "address"
        }
      ],
      "name": "isUniExist",
      "outputs": [
        {
          "name": "",
          "type": "bool"
        }
      ],
      "payable": false,
      "stateMutability": "view",
      "type": "function"
    },
    {
      "constant": true,
      "inputs": [],
      "name": "getNoOfUniversity",
      "outputs": [
        {
          "name": "",
          "type": "uint256"
        }
      ],
      "payable": false,
      "stateMutability": "view",
      "type": "function"
    },
    {
      "constant": true,
      "inputs": [
        {
          "name": "index",
          "type": "uint256"
        }
      ],
      "name": "getUniversityAt",
      "outputs": [
        {
          "name": "",
          "type": "address"
        }
      ],
      "payable": false,
      "stateMutability": "view",
      "type": "function"
    },
    {
      "constant": false,
      "inputs": [
        {
          "name": "parentUniv",
          "type": "address"
        },
        {
          "name": "_instName",
          "type": "bytes32"
        }
      ],
      "name": "createInstitute",
      "outputs": [
        {
          "name": "",
          "type": "address"
        }
      ],
      "payable": false,
      "stateMutability": "nonpayable",
      "type": "function"
    },
    {
      "constant": false,
      "inputs": [
        {
          "name": "parentInst",
          "type": "address"
        },
        {
          "name": "_courseIdentifier",
          "type": "bytes32"
        }
      ],
      "name": "createCourse",
      "outputs": [
        {
          "name": "",
          "type": "address"
        }
      ],
      "payable": false,
      "stateMutability": "nonpayable",
      "type": "function"
    },
    {
      "constant": false,
      "inputs": [
        {
          "name": "parentCourse",
          "type": "address"
        },
        {
          "name": "_batchIdentifier",
          "type": "bytes32"
        }
      ],
      "name": "createBatch",
      "outputs": [
        {
          "name": "",
          "type": "address"
        }
      ],
      "payable": false,
      "stateMutability": "nonpayable",
      "type": "function"
    },
    {
      "constant": true,
      "inputs": [
        {
          "name": "univAddress",
          "type": "address"
        },
        {
          "name": "instAddress",
          "type": "address"
        },
        {
          "name": "courseAddress",
          "type": "address"
        },
        {
          "name": "batchAddress",
          "type": "address"
        }
      ],
      "name": "checkHierarchy",
      "outputs": [
        {
          "name": "",
          "type": "bool"
        }
      ],
      "payable": false,
      "stateMutability": "view",
      "type": "function"
    },
    {
      "constant": true,
      "inputs": [
        {
          "name": "certAddress",
          "type": "address"
        },
        {
          "name": "merkelRootHash",
          "type": "bytes32"
        }
      ],
      "name": "verifyMerketRoot",
      "outputs": [
        {
          "name": "",
          "type": "bool"
        }
      ],
      "payable": false,
      "stateMutability": "view",
      "type": "function"
    },
    {
      "constant": false,
      "inputs": [
        {
          "name": "batchAddress",
          "type": "address"
        },
        {
          "name": "merkelRoot",
          "type": "bytes32"
        }
      ],
      "name": "setMerketRoot",
      "outputs": [
        {
          "name": "",
          "type": "bool"
        }
      ],
      "payable": false,
      "stateMutability": "nonpayable",
      "type": "function"
    }
  ],
  "bytecode": "0x608060405234801561001057600080fd5b50336000806101000a81548173ffffffffffffffffffffffffffffffffffffffff021916908373ffffffffffffffffffffffffffffffffffffffff16021790555033600160006101000a81548173ffffffffffffffffffffffffffffffffffffffff021916908373ffffffffffffffffffffffffffffffffffffffff160217905550613aca806100a16000396000f3fe6080604052600436106100a4576000357c0100000000000000000000000000000000000000000000000000000000900463ffffffff1680632cb2db26146100a957806333b92e861461011c57806352cb4d371461018f578063556013b31461022a5780636caf9945146102f35780637ef75b561461035c5780639e8c83b7146103f7578063dd4a4d8014610422578063ddfc56e5146104bd578063f2f7e93f14610538575b600080fd5b3480156100b557600080fd5b50610102600480360360408110156100cc57600080fd5b81019080803573ffffffffffffffffffffffffffffffffffffffff169060200190929190803590602001909291905050506105b3565b604051808215151515815260200191505060405180910390f35b34801561012857600080fd5b506101756004803603604081101561013f57600080fd5b81019080803573ffffffffffffffffffffffffffffffffffffffff16906020019092919080359060200190929190505050610709565b604051808215151515815260200191505060405180910390f35b34801561019b57600080fd5b506101e8600480360360408110156101b257600080fd5b81019080803573ffffffffffffffffffffffffffffffffffffffff169060200190929190803590602001909291905050506107c2565b604051808273ffffffffffffffffffffffffffffffffffffffff1673ffffffffffffffffffffffffffffffffffffffff16815260200191505060405180910390f35b34801561023657600080fd5b506102d96004803603608081101561024d57600080fd5b81019080803573ffffffffffffffffffffffffffffffffffffffff169060200190929190803573ffffffffffffffffffffffffffffffffffffffff169060200190929190803573ffffffffffffffffffffffffffffffffffffffff169060200190929190803573ffffffffffffffffffffffffffffffffffffffff1690602001909291905050506109a8565b604051808215151515815260200191505060405180910390f35b3480156102ff57600080fd5b506103426004803603602081101561031657600080fd5b81019080803573ffffffffffffffffffffffffffffffffffffffff169060200190929190505050610c90565b604051808215151515815260200191505060405180910390f35b34801561036857600080fd5b506103b56004803603604081101561037f57600080fd5b81019080803573ffffffffffffffffffffffffffffffffffffffff16906020019092919080359060200190929190505050610e0e565b604051808273ffffffffffffffffffffffffffffffffffffffff1673ffffffffffffffffffffffffffffffffffffffff16815260200191505060405180910390f35b34801561040357600080fd5b5061040c610ff4565b6040518082815260200191505060405180910390f35b34801561042e57600080fd5b5061047b6004803603604081101561044557600080fd5b81019080803573ffffffffffffffffffffffffffffffffffffffff16906020019092919080359060200190929190505050611001565b604051808273ffffffffffffffffffffffffffffffffffffffff1673ffffffffffffffffffffffffffffffffffffffff16815260200191505060405180910390f35b3480156104c957600080fd5b506104f6600480360360208110156104e057600080fd5b81019080803590602001909291905050506111e7565b604051808273ffffffffffffffffffffffffffffffffffffffff1673ffffffffffffffffffffffffffffffffffffffff16815260200191505060405180910390f35b34801561054457600080fd5b506105716004803603602081101561055b57600080fd5b8101908080359060200190929190505050611242565b604051808273ffffffffffffffffffffffffffffffffffffffff1673ffffffffffffffffffffffffffffffffffffffff16815260200191505060405180910390f35b60008083905060008173ffffffffffffffffffffffffffffffffffffffff1663054ca3f56040518163ffffffff167c010000000000000000000000000000000000000000000000000000000002815260040160206040518083038186803b15801561061d57600080fd5b505afa158015610631573d6000803e3d6000fd5b505050506040513d602081101561064757600080fd5b810190808051906020019092919050505090506000819050848173ffffffffffffffffffffffffffffffffffffffff1663de697d7f6040518163ffffffff167c010000000000000000000000000000000000000000000000000000000002815260040160206040518083038186803b1580156106c257600080fd5b505afa1580156106d6573d6000803e3d6000fd5b505050506040513d60208110156106ec57600080fd5b810190808051906020019092919050505014935050505092915050565b6000808390508073ffffffffffffffffffffffffffffffffffffffff1663b5e115f5846040518263ffffffff167c010000000000000000000000000000000000000000000000000000000002815260040180828152602001915050602060405180830381600087803b15801561077e57600080fd5b505af1158015610792573d6000803e3d6000fd5b505050506040513d60208110156107a857600080fd5b810190808051906020019092919050505091505092915050565b60008083836107cf611517565b808373ffffffffffffffffffffffffffffffffffffffff1673ffffffffffffffffffffffffffffffffffffffff16815260200182815260200192505050604051809103906000f080158015610828573d6000803e3d6000fd5b5090508373ffffffffffffffffffffffffffffffffffffffff16637823ff8b826040518263ffffffff167c0100000000000000000000000000000000000000000000000000000000028152600401808273ffffffffffffffffffffffffffffffffffffffff1673ffffffffffffffffffffffffffffffffffffffff168152602001915050602060405180830381600087803b1580156108c657600080fd5b505af11580156108da573d6000803e3d6000fd5b505050506040513d60208110156108f057600080fd5b8101908080519060200190929190505050507f124ce8bd5613929a4f6ebc803bd02cf2178cdabdd5a7309ab85b53fccb5b2ee98160405180806020018373ffffffffffffffffffffffffffffffffffffffff1673ffffffffffffffffffffffffffffffffffffffff168152602001828103825260168152602001807f4e65772042617463682061646472657373206973203a000000000000000000008152506020019250505060405180910390a18091505092915050565b60006109b385610c90565b15156109c25760009050610c88565b60008590508073ffffffffffffffffffffffffffffffffffffffff1663c9985265866040518263ffffffff167c0100000000000000000000000000000000000000000000000000000000028152600401808273ffffffffffffffffffffffffffffffffffffffff1673ffffffffffffffffffffffffffffffffffffffff16815260200191505060206040518083038186803b158015610a6057600080fd5b505afa158015610a74573d6000803e3d6000fd5b505050506040513d6020811015610a8a57600080fd5b81019080805190602001909291905050501515610aab576000915050610c88565b60008590508073ffffffffffffffffffffffffffffffffffffffff1663ece5c44c866040518263ffffffff167c0100000000000000000000000000000000000000000000000000000000028152600401808273ffffffffffffffffffffffffffffffffffffffff1673ffffffffffffffffffffffffffffffffffffffff16815260200191505060206040518083038186803b158015610b4957600080fd5b505afa158015610b5d573d6000803e3d6000fd5b505050506040513d6020811015610b7357600080fd5b81019080805190602001909291905050501515610b9557600092505050610c88565b60008590508073ffffffffffffffffffffffffffffffffffffffff1663e85e06f0866040518263ffffffff167c0100000000000000000000000000000000000000000000000000000000028152600401808273ffffffffffffffffffffffffffffffffffffffff1673ffffffffffffffffffffffffffffffffffffffff16815260200191505060206040518083038186803b158015610c3357600080fd5b505afa158015610c47573d6000803e3d6000fd5b505050506040513d6020811015610c5d57600080fd5b81019080805190602001909291905050501515610c805760009350505050610c88565b600193505050505b949350505050565b60008060009054906101000a900473ffffffffffffffffffffffffffffffffffffffff1673ffffffffffffffffffffffffffffffffffffffff163373ffffffffffffffffffffffffffffffffffffffff16141515610ced57600080fd5b60006003805490501415610d045760009050610e09565b8173ffffffffffffffffffffffffffffffffffffffff166003600260008573ffffffffffffffffffffffffffffffffffffffff1673ffffffffffffffffffffffffffffffffffffffff16815260200190815260200160002060010154815481101515610d6c57fe5b9060005260206000200160009054906101000a900473ffffffffffffffffffffffffffffffffffffffff1673ffffffffffffffffffffffffffffffffffffffff16148015610e065750600260008373ffffffffffffffffffffffffffffffffffffffff1673ffffffffffffffffffffffffffffffffffffffff16815260200190815260200160002060000160149054906101000a900460ff165b90505b919050565b6000808383610e1b611527565b808373ffffffffffffffffffffffffffffffffffffffff1673ffffffffffffffffffffffffffffffffffffffff16815260200182815260200192505050604051809103906000f080158015610e74573d6000803e3d6000fd5b5090508373ffffffffffffffffffffffffffffffffffffffff166350697998826040518263ffffffff167c0100000000000000000000000000000000000000000000000000000000028152600401808273ffffffffffffffffffffffffffffffffffffffff1673ffffffffffffffffffffffffffffffffffffffff168152602001915050602060405180830381600087803b158015610f1257600080fd5b505af1158015610f26573d6000803e3d6000fd5b505050506040513d6020811015610f3c57600080fd5b8101908080519060200190929190505050507f57724d4ad1adee04a30a9ea61c3a6cab34dbf050f41954914886d3a324ad21838160405180806020018373ffffffffffffffffffffffffffffffffffffffff1673ffffffffffffffffffffffffffffffffffffffff1681526020018281038252601a8152602001807f4e657720496e737469747574652061646472657373206973203a0000000000008152506020019250505060405180910390a18091505092915050565b6000600380549050905090565b600080838361100e611537565b808373ffffffffffffffffffffffffffffffffffffffff1673ffffffffffffffffffffffffffffffffffffffff16815260200182815260200192505050604051809103906000f080158015611067573d6000803e3d6000fd5b5090508373ffffffffffffffffffffffffffffffffffffffff16633cd5f8ea826040518263ffffffff167c0100000000000000000000000000000000000000000000000000000000028152600401808273ffffffffffffffffffffffffffffffffffffffff1673ffffffffffffffffffffffffffffffffffffffff168152602001915050602060405180830381600087803b15801561110557600080fd5b505af1158015611119573d6000803e3d6000fd5b505050506040513d602081101561112f57600080fd5b8101908080519060200190929190505050507fd27b9e39add84b88accf9906565932e2f6908a84a38ab8808717747d495ec4ca8160405180806020018373ffffffffffffffffffffffffffffffffffffffff1673ffffffffffffffffffffffffffffffffffffffff168152602001828103825260178152602001807f4e657720436f757273652061646472657373206973203a0000000000000000008152506020019250505060405180910390a18091505092915050565b6000600380549050821115156112385760038281548110151561120657fe5b9060005260206000200160009054906101000a900473ffffffffffffffffffffffffffffffffffffffff16905061123d565b600090505b919050565b6000808261124e611547565b80828152602001915050604051809103906000f080158015611274573d6000803e3d6000fd5b50905061128081611326565b507f865e6826b452221d52d3a4bfbb375c295f3b2869282ce630197c696a3b0fec3c8160405180806020018373ffffffffffffffffffffffffffffffffffffffff1673ffffffffffffffffffffffffffffffffffffffff1681526020018281038252601b8152602001807f4e657720556e69766572736974792061646472657373206973203a00000000008152506020019250505060405180910390a180915050919050565b600061133182610c90565b156113405761270f9050611512565b81600260008473ffffffffffffffffffffffffffffffffffffffff1673ffffffffffffffffffffffffffffffffffffffff16815260200190815260200160002060000160006101000a81548173ffffffffffffffffffffffffffffffffffffffff021916908373ffffffffffffffffffffffffffffffffffffffff1602179055506001600260008473ffffffffffffffffffffffffffffffffffffffff1673ffffffffffffffffffffffffffffffffffffffff16815260200190815260200160002060000160146101000a81548160ff021916908315150217905550600160038390806001815401808255809150509060018203906000526020600020016000909192909190916101000a81548173ffffffffffffffffffffffffffffffffffffffff021916908373ffffffffffffffffffffffffffffffffffffffff16021790555003600260008473ffffffffffffffffffffffffffffffffffffffff1673ffffffffffffffffffffffffffffffffffffffff168152602001908152602001600020600101819055507fe8e99947b78d0f20db37294baaac84e4fb64a7fb3d31d02e6a3d461346ab45716001604051808215151515815260200191505060405180910390a160016003805490500390505b919050565b604051610aa78061155883390190565b6040516109f780611fff83390190565b6040516109f7806129f683390190565b6040516106b2806133ed8339019056fe608060405234801561001057600080fd5b50604051604080610aa78339810180604052604081101561003057600080fd5b810190808051906020019092919080519060200190929190505050336000806101000a81548173ffffffffffffffffffffffffffffffffffffffff021916908373ffffffffffffffffffffffffffffffffffffffff16021790555033600160006101000a81548173ffffffffffffffffffffffffffffffffffffffff021916908373ffffffffffffffffffffffffffffffffffffffff16021790555081600260006101000a81548173ffffffffffffffffffffffffffffffffffffffff021916908373ffffffffffffffffffffffffffffffffffffffff160217905550806003819055505050610982806101256000396000f3fe608060405260043610610099576000357c0100000000000000000000000000000000000000000000000000000000900463ffffffff16806326a1c6851461009e57806351d4cebf146100f55780638921013014610120578063b5e115f51461019b578063bd06ea19146101ee578063de697d7f14610253578063e9e309271461027e578063f6c510a8146102d1578063f6ca58ca1461033a575b600080fd5b3480156100aa57600080fd5b506100b3610365565b604051808273ffffffffffffffffffffffffffffffffffffffff1673ffffffffffffffffffffffffffffffffffffffff16815260200191505060405180910390f35b34801561010157600080fd5b5061010a61038f565b6040518082815260200191505060405180910390f35b34801561012c57600080fd5b506101596004803603602081101561014357600080fd5b810190808035906020019092919050505061039c565b604051808273ffffffffffffffffffffffffffffffffffffffff1673ffffffffffffffffffffffffffffffffffffffff16815260200191505060405180910390f35b3480156101a757600080fd5b506101d4600480360360208110156101be57600080fd5b81019080803590602001909291905050506103f6565b604051808215151515815260200191505060405180910390f35b3480156101fa57600080fd5b5061023d6004803603602081101561021157600080fd5b81019080803573ffffffffffffffffffffffffffffffffffffffff169060200190929190505050610408565b6040518082815260200191505060405180910390f35b34801561025f57600080fd5b50610268610654565b6040518082815260200191505060405180910390f35b34801561028a57600080fd5b5061029361065e565b6040518082601460200280838360005b838110156102be5780820151818401526020810190506102a3565b5050505090500191505060405180910390f35b3480156102dd57600080fd5b50610320600480360360208110156102f457600080fd5b81019080803573ffffffffffffffffffffffffffffffffffffffff169060200190929190505050610806565b604051808215151515815260200191505060405180910390f35b34801561034657600080fd5b5061034f610928565b6040518082815260200191505060405180910390f35b6000600260009054906101000a900473ffffffffffffffffffffffffffffffffffffffff16905090565b6000600680549050905090565b60006006805490508210156103ec576006828154811015156103ba57fe5b9060005260206000200160009054906101000a900473ffffffffffffffffffffffffffffffffffffffff1690506103f1565b600090505b919050565b60008160048190555060019050919050565b60008060009054906101000a900473ffffffffffffffffffffffffffffffffffffffff1673ffffffffffffffffffffffffffffffffffffffff163373ffffffffffffffffffffffffffffffffffffffff1614151561046557600080fd5b61046e82610806565b1561047d5761270f905061064f565b81600560008473ffffffffffffffffffffffffffffffffffffffff1673ffffffffffffffffffffffffffffffffffffffff16815260200190815260200160002060000160006101000a81548173ffffffffffffffffffffffffffffffffffffffff021916908373ffffffffffffffffffffffffffffffffffffffff1602179055506001600560008473ffffffffffffffffffffffffffffffffffffffff1673ffffffffffffffffffffffffffffffffffffffff16815260200190815260200160002060000160146101000a81548160ff021916908315150217905550600160068390806001815401808255809150509060018203906000526020600020016000909192909190916101000a81548173ffffffffffffffffffffffffffffffffffffffff021916908373ffffffffffffffffffffffffffffffffffffffff16021790555003600560008473ffffffffffffffffffffffffffffffffffffffff1673ffffffffffffffffffffffffffffffffffffffff168152602001908152602001600020600101819055507fd2b9d64e3d3d48c3264375e25c3d91ab965c536015fcd385d9e87fcff5c6e26d6001604051808215151515815260200191505060405180910390a160016006805490500390505b919050565b6000600454905090565b610666610932565b61066e610932565b60008090505b6006805490508110156107fe576005600060068381548110151561069457fe5b9060005260206000200160009054906101000a900473ffffffffffffffffffffffffffffffffffffffff1673ffffffffffffffffffffffffffffffffffffffff1673ffffffffffffffffffffffffffffffffffffffff16815260200190815260200160002060000160149054906101000a900460ff16156107f1576005600060068381548110151561072257fe5b9060005260206000200160009054906101000a900473ffffffffffffffffffffffffffffffffffffffff1673ffffffffffffffffffffffffffffffffffffffff1673ffffffffffffffffffffffffffffffffffffffff16815260200190815260200160002060000160009054906101000a900473ffffffffffffffffffffffffffffffffffffffff1682826014811015156107b957fe5b602002019073ffffffffffffffffffffffffffffffffffffffff16908173ffffffffffffffffffffffffffffffffffffffff16815250505b8080600101915050610674565b508091505090565b600080600680549050141561081e5760009050610923565b8173ffffffffffffffffffffffffffffffffffffffff166006600560008573ffffffffffffffffffffffffffffffffffffffff1673ffffffffffffffffffffffffffffffffffffffff1681526020019081526020016000206001015481548110151561088657fe5b9060005260206000200160009054906101000a900473ffffffffffffffffffffffffffffffffffffffff1673ffffffffffffffffffffffffffffffffffffffff161480156109205750600560008373ffffffffffffffffffffffffffffffffffffffff1673ffffffffffffffffffffffffffffffffffffffff16815260200190815260200160002060000160149054906101000a900460ff165b90505b919050565b6000600354905090565b6102806040519081016040528060149060208202803883398082019150509050509056fea165627a7a72305820dd3420d6fdf8c46f31d1d4ead4362590cfa132d0d3d30d483bf278b604cdf8fe0029608060405234801561001057600080fd5b506040516040806109f78339810180604052604081101561003057600080fd5b810190808051906020019092919080519060200190929190505050336000806101000a81548173ffffffffffffffffffffffffffffffffffffffff021916908373ffffffffffffffffffffffffffffffffffffffff16021790555033600160006101000a81548173ffffffffffffffffffffffffffffffffffffffff021916908373ffffffffffffffffffffffffffffffffffffffff16021790555081600260006101000a81548173ffffffffffffffffffffffffffffffffffffffff021916908373ffffffffffffffffffffffffffffffffffffffff1602179055508060038190555050506108d2806101256000396000f3fe608060405260043610610083576000357c0100000000000000000000000000000000000000000000000000000000900463ffffffff16806304e48bd1146100885780631cc80b2f146100db5780633cd5f8ea146101065780633e39b6ec1461016b57806368a1447f146101e657806369f59abd1461023d578063ece5c44c14610268575b600080fd5b34801561009457600080fd5b5061009d6102d1565b6040518082601960200280838360005b838110156100c85780820151818401526020810190506100ad565b5050505090500191505060405180910390f35b3480156100e757600080fd5b506100f0610479565b6040518082815260200191505060405180910390f35b34801561011257600080fd5b506101556004803603602081101561012957600080fd5b81019080803573ffffffffffffffffffffffffffffffffffffffff169060200190929190505050610486565b6040518082815260200191505060405180910390f35b34801561017757600080fd5b506101a46004803603602081101561018e57600080fd5b81019080803590602001909291905050506106d2565b604051808273ffffffffffffffffffffffffffffffffffffffff1673ffffffffffffffffffffffffffffffffffffffff16815260200191505060405180910390f35b3480156101f257600080fd5b506101fb61072c565b604051808273ffffffffffffffffffffffffffffffffffffffff1673ffffffffffffffffffffffffffffffffffffffff16815260200191505060405180910390f35b34801561024957600080fd5b50610252610756565b6040518082815260200191505060405180910390f35b34801561027457600080fd5b506102b76004803603602081101561028b57600080fd5b81019080803573ffffffffffffffffffffffffffffffffffffffff169060200190929190505050610760565b604051808215151515815260200191505060405180910390f35b6102d9610882565b6102e1610882565b60008090505b600580549050811015610471576004600060058381548110151561030757fe5b9060005260206000200160009054906101000a900473ffffffffffffffffffffffffffffffffffffffff1673ffffffffffffffffffffffffffffffffffffffff1673ffffffffffffffffffffffffffffffffffffffff16815260200190815260200160002060000160149054906101000a900460ff1615610464576004600060058381548110151561039557fe5b9060005260206000200160009054906101000a900473ffffffffffffffffffffffffffffffffffffffff1673ffffffffffffffffffffffffffffffffffffffff1673ffffffffffffffffffffffffffffffffffffffff16815260200190815260200160002060000160009054906101000a900473ffffffffffffffffffffffffffffffffffffffff16828260198110151561042c57fe5b602002019073ffffffffffffffffffffffffffffffffffffffff16908173ffffffffffffffffffffffffffffffffffffffff16815250505b80806001019150506102e7565b508091505090565b6000600580549050905090565b60008060009054906101000a900473ffffffffffffffffffffffffffffffffffffffff1673ffffffffffffffffffffffffffffffffffffffff163373ffffffffffffffffffffffffffffffffffffffff161415156104e357600080fd5b6104ec82610760565b156104fb5761270f90506106cd565b81600460008473ffffffffffffffffffffffffffffffffffffffff1673ffffffffffffffffffffffffffffffffffffffff16815260200190815260200160002060000160006101000a81548173ffffffffffffffffffffffffffffffffffffffff021916908373ffffffffffffffffffffffffffffffffffffffff1602179055506001600460008473ffffffffffffffffffffffffffffffffffffffff1673ffffffffffffffffffffffffffffffffffffffff16815260200190815260200160002060000160146101000a81548160ff021916908315150217905550600160058390806001815401808255809150509060018203906000526020600020016000909192909190916101000a81548173ffffffffffffffffffffffffffffffffffffffff021916908373ffffffffffffffffffffffffffffffffffffffff16021790555003600460008473ffffffffffffffffffffffffffffffffffffffff1673ffffffffffffffffffffffffffffffffffffffff168152602001908152602001600020600101819055507f2e835230ac666725ea11b1655c76a95cfdfd2ffbf0a64536be06c34c9e4213ba6001604051808215151515815260200191505060405180910390a160016005805490500390505b919050565b6000600580549050821015610722576005828154811015156106f057fe5b9060005260206000200160009054906101000a900473ffffffffffffffffffffffffffffffffffffffff169050610727565b600090505b919050565b6000600260009054906101000a900473ffffffffffffffffffffffffffffffffffffffff16905090565b6000600354905090565b6000806005805490501415610778576000905061087d565b8173ffffffffffffffffffffffffffffffffffffffff166005600460008573ffffffffffffffffffffffffffffffffffffffff1673ffffffffffffffffffffffffffffffffffffffff168152602001908152602001600020600101548154811015156107e057fe5b9060005260206000200160009054906101000a900473ffffffffffffffffffffffffffffffffffffffff1673ffffffffffffffffffffffffffffffffffffffff1614801561087a5750600460008373ffffffffffffffffffffffffffffffffffffffff1673ffffffffffffffffffffffffffffffffffffffff16815260200190815260200160002060000160149054906101000a900460ff165b90505b919050565b6103206040519081016040528060199060208202803883398082019150509050509056fea165627a7a72305820318e307b7f4a2657c1b9a55c696869fb796472c0206392c2eeb145de07babee30029608060405234801561001057600080fd5b506040516040806109f78339810180604052604081101561003057600080fd5b810190808051906020019092919080519060200190929190505050336000806101000a81548173ffffffffffffffffffffffffffffffffffffffff021916908373ffffffffffffffffffffffffffffffffffffffff16021790555033600160006101000a81548173ffffffffffffffffffffffffffffffffffffffff021916908373ffffffffffffffffffffffffffffffffffffffff1602179055508060038190555081600260006101000a81548173ffffffffffffffffffffffffffffffffffffffff021916908373ffffffffffffffffffffffffffffffffffffffff16021790555050506108d2806101256000396000f3fe608060405260043610610083576000357c0100000000000000000000000000000000000000000000000000000000900463ffffffff1680635b6f2d881461008857806368f4e66e146101035780637823ff8b1461012e5780637ed207be14610193578063c5eb8bac146101be578063e80e076b14610215578063e85e06f014610268575b600080fd5b34801561009457600080fd5b506100c1600480360360208110156100ab57600080fd5b81019080803590602001909291905050506102d1565b604051808273ffffffffffffffffffffffffffffffffffffffff1673ffffffffffffffffffffffffffffffffffffffff16815260200191505060405180910390f35b34801561010f57600080fd5b5061011861032b565b6040518082815260200191505060405180910390f35b34801561013a57600080fd5b5061017d6004803603602081101561015157600080fd5b81019080803573ffffffffffffffffffffffffffffffffffffffff169060200190929190505050610338565b6040518082815260200191505060405180910390f35b34801561019f57600080fd5b506101a8610584565b6040518082815260200191505060405180910390f35b3480156101ca57600080fd5b506101d361058e565b604051808273ffffffffffffffffffffffffffffffffffffffff1673ffffffffffffffffffffffffffffffffffffffff16815260200191505060405180910390f35b34801561022157600080fd5b5061022a6105b8565b6040518082601460200280838360005b8381101561025557808201518184015260208101905061023a565b5050505090500191505060405180910390f35b34801561027457600080fd5b506102b76004803603602081101561028b57600080fd5b81019080803573ffffffffffffffffffffffffffffffffffffffff169060200190929190505050610760565b604051808215151515815260200191505060405180910390f35b6000600580549050821015610321576005828154811015156102ef57fe5b9060005260206000200160009054906101000a900473ffffffffffffffffffffffffffffffffffffffff169050610326565b600090505b919050565b6000600580549050905090565b60008060009054906101000a900473ffffffffffffffffffffffffffffffffffffffff1673ffffffffffffffffffffffffffffffffffffffff163373ffffffffffffffffffffffffffffffffffffffff1614151561039557600080fd5b61039e82610760565b156103ad5761270f905061057f565b81600460008473ffffffffffffffffffffffffffffffffffffffff1673ffffffffffffffffffffffffffffffffffffffff16815260200190815260200160002060000160006101000a81548173ffffffffffffffffffffffffffffffffffffffff021916908373ffffffffffffffffffffffffffffffffffffffff1602179055506001600460008473ffffffffffffffffffffffffffffffffffffffff1673ffffffffffffffffffffffffffffffffffffffff16815260200190815260200160002060000160146101000a81548160ff021916908315150217905550600160058390806001815401808255809150509060018203906000526020600020016000909192909190916101000a81548173ffffffffffffffffffffffffffffffffffffffff021916908373ffffffffffffffffffffffffffffffffffffffff16021790555003600460008473ffffffffffffffffffffffffffffffffffffffff1673ffffffffffffffffffffffffffffffffffffffff168152602001908152602001600020600101819055507f5cb3d321e76a952cc99f47e21b97e6f352024c1f8f8bb5c3ebf06537d8e7a80a6001604051808215151515815260200191505060405180910390a160016005805490500390505b919050565b6000600354905090565b6000600260009054906101000a900473ffffffffffffffffffffffffffffffffffffffff16905090565b6105c0610882565b6105c8610882565b60008090505b60058054905081101561075857600460006005838154811015156105ee57fe5b9060005260206000200160009054906101000a900473ffffffffffffffffffffffffffffffffffffffff1673ffffffffffffffffffffffffffffffffffffffff1673ffffffffffffffffffffffffffffffffffffffff16815260200190815260200160002060000160149054906101000a900460ff161561074b576004600060058381548110151561067c57fe5b9060005260206000200160009054906101000a900473ffffffffffffffffffffffffffffffffffffffff1673ffffffffffffffffffffffffffffffffffffffff1673ffffffffffffffffffffffffffffffffffffffff16815260200190815260200160002060000160009054906101000a900473ffffffffffffffffffffffffffffffffffffffff16828260148110151561071357fe5b602002019073ffffffffffffffffffffffffffffffffffffffff16908173ffffffffffffffffffffffffffffffffffffffff16815250505b80806001019150506105ce565b508091505090565b6000806005805490501415610778576000905061087d565b8173ffffffffffffffffffffffffffffffffffffffff166005600460008573ffffffffffffffffffffffffffffffffffffffff1673ffffffffffffffffffffffffffffffffffffffff168152602001908152602001600020600101548154811015156107e057fe5b9060005260206000200160009054906101000a900473ffffffffffffffffffffffffffffffffffffffff1673ffffffffffffffffffffffffffffffffffffffff1614801561087a5750600460008373ffffffffffffffffffffffffffffffffffffffff1673ffffffffffffffffffffffffffffffffffffffff16815260200190815260200160002060000160149054906101000a900460ff165b90505b919050565b6102806040519081016040528060149060208202803883398082019150509050509056fea165627a7a7230582021d00fd65e41b8911b28eb6e371df61fd66cd7021005a49de196db596500900a0029608060405234801561001057600080fd5b506040516020806106b28339810180604052602081101561003057600080fd5b8101908080519060200190929190505050336000806101000a81548173ffffffffffffffffffffffffffffffffffffffff021916908373ffffffffffffffffffffffffffffffffffffffff16021790555033600160006101000a81548173ffffffffffffffffffffffffffffffffffffffff021916908373ffffffffffffffffffffffffffffffffffffffff16021790555080600281905550506105d9806100d96000396000f3fe608060405260043610610062576000357c0100000000000000000000000000000000000000000000000000000000900463ffffffff168063506979981461006757806355e873fd146100cc578063c9985265146100f7578063d687e2b514610160575b600080fd5b34801561007357600080fd5b506100b66004803603602081101561008a57600080fd5b81019080803573ffffffffffffffffffffffffffffffffffffffff1690602001909291905050506101db565b6040518082815260200191505060405180910390f35b3480156100d857600080fd5b506100e1610427565b6040518082815260200191505060405180910390f35b34801561010357600080fd5b506101466004803603602081101561011a57600080fd5b81019080803573ffffffffffffffffffffffffffffffffffffffff169060200190929190505050610431565b604051808215151515815260200191505060405180910390f35b34801561016c57600080fd5b506101996004803603602081101561018357600080fd5b8101908080359060200190929190505050610553565b604051808273ffffffffffffffffffffffffffffffffffffffff1673ffffffffffffffffffffffffffffffffffffffff16815260200191505060405180910390f35b60008060009054906101000a900473ffffffffffffffffffffffffffffffffffffffff1673ffffffffffffffffffffffffffffffffffffffff163373ffffffffffffffffffffffffffffffffffffffff1614151561023857600080fd5b61024182610431565b156102505761270f9050610422565b81600360008473ffffffffffffffffffffffffffffffffffffffff1673ffffffffffffffffffffffffffffffffffffffff16815260200190815260200160002060000160006101000a81548173ffffffffffffffffffffffffffffffffffffffff021916908373ffffffffffffffffffffffffffffffffffffffff1602179055506001600360008473ffffffffffffffffffffffffffffffffffffffff1673ffffffffffffffffffffffffffffffffffffffff16815260200190815260200160002060000160146101000a81548160ff021916908315150217905550600160048390806001815401808255809150509060018203906000526020600020016000909192909190916101000a81548173ffffffffffffffffffffffffffffffffffffffff021916908373ffffffffffffffffffffffffffffffffffffffff16021790555003600360008473ffffffffffffffffffffffffffffffffffffffff1673ffffffffffffffffffffffffffffffffffffffff168152602001908152602001600020600101819055507f5b2dc27cbeea7de82f7fcb4a3e568845f8f8221c460b0cb5fb03a31b5b9bb41f6001604051808215151515815260200191505060405180910390a160016004805490500390505b919050565b6000600254905090565b6000806004805490501415610449576000905061054e565b8173ffffffffffffffffffffffffffffffffffffffff166004600360008573ffffffffffffffffffffffffffffffffffffffff1673ffffffffffffffffffffffffffffffffffffffff168152602001908152602001600020600101548154811015156104b157fe5b9060005260206000200160009054906101000a900473ffffffffffffffffffffffffffffffffffffffff1673ffffffffffffffffffffffffffffffffffffffff1614801561054b5750600360008373ffffffffffffffffffffffffffffffffffffffff1673ffffffffffffffffffffffffffffffffffffffff16815260200190815260200160002060000160149054906101000a900460ff165b90505b919050565b60006004805490508210156105a35760048281548110151561057157fe5b9060005260206000200160009054906101000a900473ffffffffffffffffffffffffffffffffffffffff1690506105a8565b600090505b91905056fea165627a7a723058207813f986b1615ea49b7ef18ff1f0a0d38e7e46f2e114d66e890c41e51c4f7edd0029a165627a7a7230582069e232c4ee108f79d194d8b60ad28a5fcf670e0dfd0969118dbf9c90b6d9a8680029",
  "source": "//pragma solidity 0.4.23;\r\npragma solidity >=0.5.0 <0.7.0;\r\n\r\nimport \"./Owned.sol\";\r\nimport \"./Student.sol\";\r\nimport \"./Certificate.sol\";\r\nimport \"./University.sol\";\r\nimport \"./Institute.sol\";\r\nimport \"./Course.sol\";\r\nimport \"./Batch.sol\";\r\nimport \"./ConvertLib.sol\";\r\n\r\n//Main controlling class, Facade pattern which controls the Create, Read and Update operations on Domain Objects e.g.\r\n//a. different universities;\r\n//b. different Institutes under the same University;\r\n//c. different courses provided by the given Institute,\r\n//d. different batches related to each course as per their duration and year;\r\n//e. list of Students studying a courses for a specific batch\r\n//f. Certificate which is created first and later granted to a student once course is successfully completed.\r\ncontract UniController is Owned {\r\n  address private owner; //DApp\r\n\r\n  //event sent to the DApp for new DOs e.g. University, Institute, Course, Batch, Student, Certificate are created\r\n  event UniversityAddress(string message, address univ);\r\n  event InstituteAddress(string message, address institute);\r\n  event CourseAddress(string message, address course);\r\n  event BatchAddress(string message, address batch);\r\n\r\n  //event sent to the DApp whenever change in the internal structure e.g. Certificate added to list, Certificate granted to a student of a specific batch\r\n  event UniversityAdded(bool flag);\r\n\r\n  //Data Structure maintained for all the Universites over SmartChain University platform\r\n  struct UniversityStruct {\r\n    address univAddress;\r\n    bool isUniversity;\r\n\t  uint index;\r\n  }\r\n\r\n  mapping (address => UniversityStruct) private univStructs;\r\n  address[] private univIndex;\r\n\r\n  //Mere Constructor\r\n  constructor() public {\r\n    owner = msg.sender;  // just set the self\r\n  }\r\n\r\n  //////////////University related methods////////////////////\r\n  //Create University object under one name/identifier set by DApp\r\n  function createUniversity(bytes32 _univName) public returns (address) {\r\n\t  University univ = new University(_univName);\r\n\t  addUniversity(address(univ));\r\n\t  emit UniversityAddress(\"New University address is :\",address(univ)); //send event of address of new University to the DApp\r\n\t  return address(univ);\r\n  }\r\n\r\n  function isUniExist(address uniAddress) public onlyOwner view returns(bool) {\r\n    if(univIndex.length == 0) return false;\r\n\t   return ((univIndex[univStructs[uniAddress].index] == uniAddress) && (univStructs[uniAddress].isUniversity));\r\n  }\r\n\r\n  function getNoOfUniversity() public view returns (uint) {\r\n    return univIndex.length;\r\n  }\r\n\r\n  function getUniversityAt(uint index) public view returns (address) {\r\n    if(index <= univIndex.length)\r\n      return univIndex[index];\r\n    else\r\n      return address(0x00);\r\n  }\r\n\r\n  //add university object of the local data structure\r\n  function addUniversity(address univAddress) private returns(uint) {\r\n    if(isUniExist(univAddress)) return uint(9999);\r\n    univStructs[univAddress].univAddress = univAddress;\r\n\t  univStructs[univAddress].isUniversity = true;\r\n    univStructs[univAddress].index = univIndex.push(univAddress)-1;\r\n    emit UniversityAdded(true); //send event of address of new strudent is added to the DApp\r\n    return univIndex.length-1;\r\n  }\r\n\r\n  //////////////Institute, Batch and Course creation methods////////////////////\r\n  //Create institute object under one University with one name/identifier set by DApp\r\n  function createInstitute(address parentUniv, bytes32 _instName) public returns (address) {\r\n    Institute inst = new Institute(parentUniv, _instName);\r\n\t  University(parentUniv).addInstitute(address(inst));\r\n\t  emit InstituteAddress(\"New Institute address is :\", address(inst));  //send event of address of new institute to the DApp\r\n\t  return address(inst);\r\n  }\r\n\r\n  //Create course object run by one institute with one name/identifier set by DApp\r\n  function createCourse(address parentInst, bytes32 _courseIdentifier) public returns (address) {\r\n  \tCourse course = new Course(parentInst, _courseIdentifier);\r\n  \tInstitute(parentInst).addCourse(address(course));\r\n\t  emit CourseAddress(\"New Course address is :\", address(course));    //send event of address of new course to the DApp\r\n  \treturn address(course);\r\n  }\r\n\r\n  //Create batch object of a course with one name/identifier set by DApp\r\n  function createBatch(address parentCourse, bytes32 _batchIdentifier) public returns (address) {\r\n  \tBatch batch = new Batch(parentCourse, _batchIdentifier);\r\n  \tCourse(parentCourse).addBatch(address(batch));\r\n    //string constant msg  = \"New Batch is created :\";\r\n    emit BatchAddress(\"New Batch address is :\", address(batch));  //send event of address of new batch to the DApp\r\n  \treturn address(batch);\r\n  }\r\n\r\n  //Important method as part of verification, to check if this quadruple belongs to the same hierarchy or not!!\r\n  function checkHierarchy(address univAddress,address instAddress,address courseAddress,address batchAddress) public view returns (bool) {\r\n    if(!isUniExist(univAddress)) return false;\r\n\r\n  \tUniversity univ = University(univAddress);\r\n  \tif(!univ.isInstituteExist(instAddress)) return false;\r\n\r\n  \tInstitute inst = Institute(instAddress);\r\n  \tif(!inst.isCourseExist(courseAddress)) return false;\r\n\r\n  \tCourse course = Course(courseAddress);\r\n  \tif(!course.isBatchExist(batchAddress)) return false;\r\n\r\n  \treturn true;\r\n  }\r\n\r\n  //Another important method of verification process, whether merkel root of the associated batch, of the given certificate is same as the sent by the student!!\r\n  function verifyMerketRoot(address certAddress, bytes32 merkelRootHash) public view returns(bool) {\r\n    Certificate cert = Certificate(certAddress);\r\n    address batchAddress = cert.getBatchAddress();\r\n    Batch batch = Batch(batchAddress);\r\n  \treturn (batch.getMerkelRoot() == merkelRootHash);\r\n  }\r\n\r\n  //The method to set merkel root hash of the entire batch once all the student will be granted certificates!!\r\n  function setMerketRoot(address batchAddress, bytes32 merkelRoot) public returns(bool) {\r\n    Batch batch = Batch(batchAddress);\r\n    return batch.setMerkelRoot(merkelRoot);\r\n  }\r\n}\r\n",
  "sourcePath": "/Users/rahulgolash/Rahul/Professional/SmartUniversity/smartuniversity/contracts/UniController.sol",
  "compiler": {
    "name": "solc",
    "version": "0.5.0+commit.1d4f565a.Emscripten.clang"
  },
  "schemaVersion": "3.0.1",
  "updatedAt": "2020-02-21T12:15:02.962Z",
  "devdoc": {
    "methods": {}
  },
  "userdoc": {
    "methods": {
      "createInstitute(address,bytes32)": {
        "notice": "///////////Institute, Batch and Course creation methods////////////////////"
      },
      "createUniversity(bytes32)": {
        "notice": "///////////University related methods////////////////////"
      }
    }
  }
}