{
  "contractName": "University",
  "abi": [
    {
      "inputs": [
        {
          "name": "_univIdentifier",
          "type": "bytes32"
        }
      ],
      "payable": false,
      "stateMutability": "nonpayable",
      "type": "constructor"
    },
    {
      "anonymous": false,
      "inputs": [
        {
          "indexed": false,
          "name": "flag",
          "type": "bool"
        }
      ],
      "name": "InstituteAdded",
      "type": "event"
    },
    {
      "constant": true,
      "inputs": [],
      "name": "getUnivesityIdentifier",
      "outputs": [
        {
          "name": "",
          "type": "bytes32"
        }
      ],
      "payable": false,
      "stateMutability": "view",
      "type": "function"
    },
    {
      "constant": true,
      "inputs": [
        {
          "name": "instituteAddress",
          "type": "address"
        }
      ],
      "name": "isInstituteExist",
      "outputs": [
        {
          "name": "",
          "type": "bool"
        }
      ],
      "payable": false,
      "stateMutability": "view",
      "type": "function"
    },
    {
      "constant": true,
      "inputs": [
        {
          "name": "index",
          "type": "uint256"
        }
      ],
      "name": "getInstituteAt",
      "outputs": [
        {
          "name": "",
          "type": "address"
        }
      ],
      "payable": false,
      "stateMutability": "view",
      "type": "function"
    },
    {
      "constant": false,
      "inputs": [
        {
          "name": "instituteAddress",
          "type": "address"
        }
      ],
      "name": "addInstitute",
      "outputs": [
        {
          "name": "",
          "type": "uint256"
        }
      ],
      "payable": false,
      "stateMutability": "nonpayable",
      "type": "function"
    }
  ],
  "bytecode": "0x608060405234801561001057600080fd5b506040516020806106b28339810180604052602081101561003057600080fd5b8101908080519060200190929190505050336000806101000a81548173ffffffffffffffffffffffffffffffffffffffff021916908373ffffffffffffffffffffffffffffffffffffffff16021790555033600160006101000a81548173ffffffffffffffffffffffffffffffffffffffff021916908373ffffffffffffffffffffffffffffffffffffffff16021790555080600281905550506105d9806100d96000396000f3fe608060405260043610610062576000357c0100000000000000000000000000000000000000000000000000000000900463ffffffff168063506979981461006757806355e873fd146100cc578063c9985265146100f7578063d687e2b514610160575b600080fd5b34801561007357600080fd5b506100b66004803603602081101561008a57600080fd5b81019080803573ffffffffffffffffffffffffffffffffffffffff1690602001909291905050506101db565b6040518082815260200191505060405180910390f35b3480156100d857600080fd5b506100e1610427565b6040518082815260200191505060405180910390f35b34801561010357600080fd5b506101466004803603602081101561011a57600080fd5b81019080803573ffffffffffffffffffffffffffffffffffffffff169060200190929190505050610431565b604051808215151515815260200191505060405180910390f35b34801561016c57600080fd5b506101996004803603602081101561018357600080fd5b8101908080359060200190929190505050610553565b604051808273ffffffffffffffffffffffffffffffffffffffff1673ffffffffffffffffffffffffffffffffffffffff16815260200191505060405180910390f35b60008060009054906101000a900473ffffffffffffffffffffffffffffffffffffffff1673ffffffffffffffffffffffffffffffffffffffff163373ffffffffffffffffffffffffffffffffffffffff1614151561023857600080fd5b61024182610431565b156102505761270f9050610422565b81600360008473ffffffffffffffffffffffffffffffffffffffff1673ffffffffffffffffffffffffffffffffffffffff16815260200190815260200160002060000160006101000a81548173ffffffffffffffffffffffffffffffffffffffff021916908373ffffffffffffffffffffffffffffffffffffffff1602179055506001600360008473ffffffffffffffffffffffffffffffffffffffff1673ffffffffffffffffffffffffffffffffffffffff16815260200190815260200160002060000160146101000a81548160ff021916908315150217905550600160048390806001815401808255809150509060018203906000526020600020016000909192909190916101000a81548173ffffffffffffffffffffffffffffffffffffffff021916908373ffffffffffffffffffffffffffffffffffffffff16021790555003600360008473ffffffffffffffffffffffffffffffffffffffff1673ffffffffffffffffffffffffffffffffffffffff168152602001908152602001600020600101819055507f5b2dc27cbeea7de82f7fcb4a3e568845f8f8221c460b0cb5fb03a31b5b9bb41f6001604051808215151515815260200191505060405180910390a160016004805490500390505b919050565b6000600254905090565b6000806004805490501415610449576000905061054e565b8173ffffffffffffffffffffffffffffffffffffffff166004600360008573ffffffffffffffffffffffffffffffffffffffff1673ffffffffffffffffffffffffffffffffffffffff168152602001908152602001600020600101548154811015156104b157fe5b9060005260206000200160009054906101000a900473ffffffffffffffffffffffffffffffffffffffff1673ffffffffffffffffffffffffffffffffffffffff1614801561054b5750600360008373ffffffffffffffffffffffffffffffffffffffff1673ffffffffffffffffffffffffffffffffffffffff16815260200190815260200160002060000160149054906101000a900460ff165b90505b919050565b60006004805490508210156105a35760048281548110151561057157fe5b9060005260206000200160009054906101000a900473ffffffffffffffffffffffffffffffffffffffff1690506105a8565b600090505b91905056fea165627a7a723058207813f986b1615ea49b7ef18ff1f0a0d38e7e46f2e114d66e890c41e51c4f7edd0029",
  "source": "//pragma solidity 0.4.23;\r\npragma solidity >=0.5.0 <0.7.0;\r\n\r\nimport \"./Owned.sol\";\r\n\r\n//University domain object which is to depict an University state in Blockchain\r\ncontract University is Owned{\r\n  address private owner;      \t\t\t\t   //Address of ControllerContract\r\n  bytes32 private universityIdentifier;  //identifier String of University, set from the DApp\r\n\r\n  //event sent to the DApp when new institute is added to the University\r\n  event InstituteAdded(bool flag);\r\n\r\n  //Data Structure maintained for Institutes\r\n  struct InstituteStruct {\r\n    address instituteData;\r\n    bool isInstitute;\r\n    uint index;\r\n  }\r\n  mapping (address => InstituteStruct) private instituteStructs;\r\n  address[] private instituteIndex;\r\n\r\n  //Constructor of the University object\r\n  constructor(bytes32 _univIdentifier) public {\r\n    owner = msg.sender;  \t// just set the ControllerContract\r\n    universityIdentifier = _univIdentifier;\r\n  }\r\n\r\n  //Get universityIdentifier\r\n  function getUnivesityIdentifier() public view returns(bytes32) {\r\n      return universityIdentifier;\r\n  }\r\n\r\n  //Check whether Institute already exists\r\n  function isInstituteExist(address instituteAddress) public view returns(bool) {\r\n  \tif(instituteIndex.length == 0) return false;\r\n  \treturn ((instituteIndex[instituteStructs[instituteAddress].index] == instituteAddress) && (instituteStructs[instituteAddress].isInstitute));\r\n  }\r\n\r\n  //Get the institute at the given index\r\n  function getInstituteAt(uint index) public view returns(address) {\r\n    if(index < instituteIndex.length)\r\n      return instituteIndex[index];\r\n    else\r\n      return address(0x00); //return null value in the case of index invalid\r\n  }\r\n\r\n  //add institute to the list if it does not exists already\r\n  function addInstitute(address instituteAddress) public onlyOwner returns(uint) {\r\n    if(isInstituteExist(instituteAddress)) return uint(9999); //9999 is merely a number sent to the callee, signifying the given Institute already exists\r\n    instituteStructs[instituteAddress].instituteData = instituteAddress;\r\n\t  instituteStructs[instituteAddress].isInstitute = true;\r\n    instituteStructs[instituteAddress].index = instituteIndex.push(instituteAddress)-1;\r\n    emit InstituteAdded(true);\r\n    return instituteIndex.length-1;\r\n  }\r\n}\r\n",
  "sourcePath": "/Users/rahulgolash/Rahul/Professional/SmartUniversity/smartuniversity/contracts/University.sol",
  "compiler": {
    "name": "solc",
    "version": "0.5.0+commit.1d4f565a.Emscripten.clang"
  },
  "schemaVersion": "3.0.1",
  "updatedAt": "2020-02-21T12:15:02.965Z",
  "devdoc": {
    "methods": {}
  },
  "userdoc": {
    "methods": {}
  }
}